:020000040800F2
:100000008819002009020008D1020008CD0200086A
:10001000CF020008C9020008FD040008000000002B
:10002000000000000000000000000000490100087E
:10003000CB02000800000000A5010008D50200085E
:1000400027020008270200082702000827020008EC
:1000500027020008270200082702000827020008DC
:1000600027020008270200082702000827020008CC
:1000700027020008270200082702000827020008BC
:1000800027020008270200082702000827020008AC
:10009000270200082702000827020008270200089C
:1000A0002702000869030008270200082702000849
:1000B0008D030008AD030008D103000827020008E3
:1000C000270200082702000827020008270200086C
:1000D0002702000885040008AD040008D5040008C4
:1000E000270200082702000827020008270200084C
:1000F0006104000827020008270200082702000800
:100100002702000827020008F5030008270200085C
:100110002702000827020008190400083D0400080F
:10012000270200082702000827020008270200080B
:10013000DFF810D000F0B6F8004800475D0700086F
:10014000AFF30080881900202C4B19680868B0E8CC
:10015000F04F80F30988BFF36F8F4FF0000080F3FA
:10016000118870470000000008480068006880F3AC
:1001700008884FF0000080F3148862B661B6BFF3C0
:100180004F8FBFF36F8F00DF00BF00BF08ED00E0AF
:10019000DFF80C00016841F470010160704700BF96
:1001A00088ED00E0EFF30980BFF36F8F134B1A68FF
:1001B0001EF0100F08BF20ED108A20E9F04F1060EC
:1001C00009B44FF0BF0080F31188BFF34F8FBFF326
:1001D0006F8F01F07FFB4FF0000080F3118809BCA6
:1001E00019680868B0E8F04F1EF0100F08BFB0ECB7
:1001F000108A80F30988BFF36F8F70471C000020BE
:10020000EFF3058070470000074880470748004724
:10021000FEE7FEE7FEE7FEE7FEE7FEE7FEE7FEE7B6
:10022000FEE7FEE7FEE7FEE7E50200083101000811
:1002300040EA01039B0703D009E008C9121F08C068
:10024000042AFAD203E011F8013B00F8013B521EE8
:10025000F9D27047D2B201E000F8012B491EFBD25F
:1002600070470022F6E710B513460A4604461946C1
:10027000FFF7F0FF204610BD30B50B4601460020C9
:100280002022012409E021FA02F59D4205D303FA58
:1002900002F5491B04FA02F52844151EA2F10102D9
:1002A000F1DC30BD064C074D06E0E06840F001038C
:1002B00094E8070098471034AC42F6D3FFF73CFFB0
:1002C0001022000830220008FEE77047FEE7FEE734
:1002D0007047000002488168491C816001F03EBB04
:1002E0001000002082B01D48016841F470010160D7
:1002F0001B48016841F00101016001688907FCD5D4
:10030000416841F0800141600022019202E00199C0
:10031000491C019101995029F9D3416841F090019C
:100320004160019202E00199491C01910199502913
:10033000F9D3416821F0030141600168094B19407C
:1003400001604FF41F018160016821F48021016088
:100350004260C26202B001F021B8000088ED00E006
:1003600000100240FFFFF6FE10B5074C01212046A9
:1003700001F019F8002805D02046BDE81040012101
:1003800001F00EB810BD0000002C014010B5012195
:100390008C07204601F007F8002805D02046BDE86C
:1003A0001040012100F0FCBF10BD000010B5074C4B
:1003B0000121204600F0F7FF002805D02046BDE8C7
:1003C0001040012100F0ECBF10BD0000000400400F
:1003D00010B5074C0121204600F0E5FF002805D0AC
:1003E0002046BDE81040012100F0DABF10BD00003A
:1003F0000008004010B5074C0121204600F0D3FF53
:10040000002805D02046BDE81040012100F0C8BFFB
:1004100010BD0000000C004010B5074C0121204623
:1004200000F0C1FF002805D02046BDE810400121A2
:1004300000F0B6BF10BD00000010004010B5074C22
:100440000121204600F0AFFF002805D02046BDE87E
:100450001040012100F0A4BF10BD000000140040B6
:1004600010B5074C0121204600F09DFF002805D063
:100470002046BDE81040012100F092BF10BD0000F1
:100480000034014070B5074C074D2146284601F065
:10049000BCF8002805D021462846BDE8704001F090
:1004A000ABB870BD050305000038014070B5074CBE
:1004B000074D2146284601F0A8F8002805D021461E
:1004C0002846BDE8704001F097B870BD05030500EF
:1004D0000044004070B5074C074D2146284601F006
:1004E00094F8002805D021462846BDE8704001F068
:1004F00083B870BD0503050000480040FEE700001A
:100500000FB4054B10B503A9044A029800F018F87F
:1005100010BC5DF814FB0000950600089000002058
:1005200002E008C8121F08C1002AFAD170477047BC
:10053000002001E001C1121F002AFBD1704700001A
:100540002DE9FF4F89B09B460446002506E025288B
:100550000BD05A460B999047641C6D1C20780028DC
:10056000F5D10DB02846BDE8F08F0027B84601222E
:10057000474900E0074314F8013F203B02FA03F02B
:100580000842F7D120782E2819D114F8010F47F02E
:1005900004072A280ED06FF02F022078A0F1300136
:1005A00009290CD808EB880102EB410100EB010896
:1005B000641CF2E70A98641C50F8048B0A902078B7
:1005C0000028CED0642808D0692806D075281ED00F
:1005D0005A460B9990476D1C58E00A994FF00A094A
:1005E00001C90A91002802DA40422D2102E03905B2
:1005F00004D52B218DF82010012103E0F90704D048
:100600002021F7E78A4608AE0DE00021FAE70A99B3
:100610004FF00A0901C90A91F7E74946FFF72CFE96
:10062000303106F8011D0028F7D1ADEB060000F1CE
:100630002009780701D44FF00108C84502DDA8EB76
:10064000090000E000208046002706E008A85A467E
:10065000C05D0B9990476D1C7F1C5745F6DB04E08D
:1006600030205A460B9990476D1CB8F10001A8F153
:100670000108F5DC05E016F8010B5A460B99904786
:100680006D1CB9F10001A9F10109F4DC641C65E7F6
:100690000928010070B50446064D0721284600F0E0
:1006A00016FF0028F9D0E1B2284600F0BFFE204630
:1006B00070BD0000003801402DE9F04301F00F0447
:1006C000CD0602D5042A18D0144300224FF00F0C97
:1006D000012707FA02F51D401AD0D0F800909600C5
:1006E0000CFA06F829EA080904FA06F848EA0908A3
:1006F000282908D0482908D008E044F00304C26B38
:100700001A43C263E1E7456100E00561C0F800807B
:10071000521C92B2082ADCD3082207FA02F51D40C7
:1007200016D0D0F80490A2F10806B6000CFA06F82C
:1007300029EA080904FA06F848EA0908282902D033
:10074000482902D002E0456100E00561C0F804805C
:10075000521C92B2102AE0D3BDE8F08308B5012301
:100760001A464FF4E131002000F0D2FE1E4C012366
:100770001A46206800904FF47A711CA001F0D0FC5A
:10078000A060206800900223002240F24D1119A0C1
:1007900001F0C6FCE060A16801B3F8B101F0F8FA1D
:1007A0000025024600952B460121A06801F0F0FCCF
:1007B0006060012802D011A0FFF7A2FE01F0E8FA64
:1007C0000246009500230121E06801F0E1FC606031
:1007D000012806D009A0FFF793FE02E00CA0FFF766
:1007E0008FFE01F043F8FEE70000002054696D65BC
:1007F0007231000054696D657232000054696D6594
:1008000072207374617274204661696C65640A00B9
:1008100054696D6572204372656174652046616933
:100820006C65640A0000000070B505460E460023A2
:10083000002423480168C1F30221072932D001684E
:10084000C1F3022106292FD00168C1F30221052935
:100850002DD00168C1F3022104292BD00068C0F318
:100860000220032829D04FF4A06000F02BF80223C7
:100870000224C3F104008640C4F104010F20C840E3
:1008800010403043000105F1E02181F8000405F03B
:100890001F01012088406909890001F1E021C1F8A8
:1008A000000170BD0424E4E701230324E1E70223EF
:1008B0000224DEE703230124DBE70423D9E7000059
:1008C0000CED00E00249084302490860704700004F
:1008D0000000FA050CED00E02DE9F04104460F465A
:1008E0001E4DEE682868001D00F0D4FE38B9286857
:1008F00090F82C1001208840296981432961601CEF
:1009000015D1A7B1164948682A68906082682B689B
:10091000DA602A688368121D5A602A68121D826094
:10092000286841610868401C0860BDE8F0813444D3
:1009300028684460B44206D22968E86B091DBDE806
:10094000F04100F0CFBE2968A86B091D00F0CAFE77
:10095000A86A8442E9D2AC62E7E700001C000020EC
:100960004801002070B5044600F0D4FE244DA8686C
:10097000401CA860286810B1686938B10CE02C6090
:10098000A868012808D100F07FF905E02868E16A2D
:10099000C06A884200D82C60686A401C6862E06ABD
:1009A00001212A69814011432961164A00EB800028
:1009B00002EB80004068A0608168E1608368211DCF
:1009C00059608160E06A00EB800002EB80016161A8
:1009D00052F82010491C42F8201000F0A9FE686966
:1009E00000280CD02868E16AC06A884207D206490C
:1009F0004FF080500860BFF34F8FBFF36F8F70BD13
:100A00001C0000209400002004ED00E010B500F070
:100A100081FE0C4C206880B90B4800F055FE0A4856
:100A2000143000F051FE0848E060143020610022CC
:100A30000C21052000F0A8FF2060BDE8104000F068
:100A400077BE00005C0000205C01002070B50C4DFA
:100A50000C4E11E000F05EFEF068C468201D00F04E
:100A600019FEA868401EA8606868401E686000F013
:100A70005FFE204600F053F868680028EAD170BD98
:100A80001C0000203401002030B40B46026C002A08
:100A90000CD0C1681144C1608468A14201D30168CF
:100AA000C160C16830BC1846FFF7C2BB30BC70479C
:100AB0002DE9F041044617460026A56B226C002A5A
:100AC00010D0C7B1E068FFF7B3FBE168206C091AEA
:100AD000E1602268914202D2A168081AE060022F08
:100AE00016D017E02068A8B9A06801F0E5F906461D
:100AF0000020A0600EE06068FFF79AFB216C606840
:100B000008446060A168884204D32068606001E006
:100B100005B16D1E6D1CA5633046BDE8F08110B5B2
:100B20000446206B00F010FE2046BDE8104000F0A7
:100B30000BBE00000749CA681168002904D00021D3
:100B4000016019B1002070470121F9E7D068006801
:100B5000704700005C0000204FF4A0510E4842078F
:100B600006D0C01D20F007000B49411AC1F5A05165
:100B70000A4B186000225A600144083921F007012D
:100B8000143B19604A600A600A1A426001604068BA
:100B900098605860704700008401002084000020A5
:100BA000074E4FF08054074DFFF750FF3068012883
:100BB000FAD92C60BFF34F8FBFF36F8FF4E70000BB
:100BC0009400002004ED00E003460098002905D0C1
:100BD0000260C3630164012100F0F6BE0060F8E723
:100BE0002DE9F0478146DDE908560A9C9846521ED9
:100BF000206B00EB820020F0070700290CD00020BA
:100C000023180A5C83F834200A5C12B1401C1028B7
:100C1000F6D3002084F84300052D00D30425E562B7
:100C20006564201D00F05BFD04F1180000F057FD25
:100C30002461C5F10500A061646242464946384618
:100C400000F094FA2060002E00D03460BDE8F087F8
:100C50002DE9F0470546DDE908940E4690461F460B
:100C6000FFF7D4FE2560A661E761C4F82090201D3F
:100C700000F035FDB8F1000F04D014F8240F40F057
:100C800004002070BDE8F08770B50024124D04EB1D
:100C9000840005EB800000F017FD641C052CF6D3E2
:100CA0000D48643000F010FD0B48783000F00CFD6A
:100CB00009488C3000F008FD0748A03000F004FD22
:100CC0000548B43000F000FD0349044864318163F5
:100CD0001431C16370BD0000940000201C0000208E
:100CE00030B5134900E011460A688242FBD34B68D5
:100CF0005C18844203D140681844486008460D6877
:100D000044682318AB420DD1094B143B1B689A422F
:100D100006D05268224442600A681268026002E00B
:100D2000036000E00260814200D0086030BD000036
:100D30008400002070B50024416000610C4D914298
:100D40000AD8D11A8269914201D301240EE0011D13
:100D5000286900F0C7FC09E09A4203D2994201D306
:100D6000012403E0011DE86800F0BCFC204670BDD2
:100D70005C00002010B5044600F0CCFCA06B20B154
:100D8000002400F0D5FC204610BD0124F9E710B581
:100D9000044600F0BFFCA06BE16B884201D1012446
:100DA00000E0002400F0C4FC204610BD70B50546EC
:100DB0000E460D48C068C068C468201D00F06AFC7B
:100DC00094F82400410705D532462946204600F014
:100DD000ABF803E000F0FE0084F824002046216A0E
:100DE000BDE87040084700005C0000207FB5324E2F
:100DF0005AE00198002857DB039C606910B1201D60
:100E000000F048FC684600F0B3F8054601980A284F
:100E10004AD2DFE800F0490505282E3D0505282EB9
:100E200094F8240040F0010084F824000298A1699D
:100E3000034601442A462046FFF77CFF38B394F866
:100E40002400410707D50298A1692A46014420469B
:100E500000F06AF803E000F0FE0084F82400216A44
:100E60002046884720E014F8240F00F0FE00207090
:100E70001AE094F8240040F0010084F8240002985D
:100E8000A06141192B462A462046FFF753FF0BE08D
:100E900094F82400810703D4204600F055FC03E0B9
:100EA00000F0FE0084F82400002201A9306800F060
:100EB00089FE00289DD17FBD5C000020F8B5064664
:100EC0000D4600F0FFFC684600F052F8044600981A
:100ED00010B101F09BF8F8BD45B9A64206D801F063
:100EE00095F821463046FFF761FFF8BD0C481DB16B
:100EF0000169096891B10025311B2A46006800F09C
:100F000051FC01F083F80028EFD106494FF08050E2
:100F10000860BFF34F8FBFF36F8FF8BD0125EBE77C
:100F20005C00002004ED00E070B505460C46164656
:100F300004E0A8690444296A28468847A86923462A
:100F4000011932462846FFF7F5FE0028F1D170BDA1
:100F50000648816B0968002904D0816BC96809685B
:100F6000816270474FF0FF31816270471C000020A2
:100F700070B5054600F00CFF0446074EB068844289
:100F800004D200F00BF80120286001E00020286066
:100F9000B460204670BD00005C00002070B5094CB4
:100FA0004FF0FF3504E0C06800682946FFF7FEFEF9
:100FB000E0680268002AF6D1E0682169E1602061FA
:100FC00070BD00005C000020BF2080F31188BFF3DB
:100FD0004F8FBFF36F8FFEE708B56846FFF7AAFD96
:100FE0000099FFF76BFFFFF701FFF6E7F8B504463E
:100FF00000F0CEFE06460D4DA868844203D131466E
:101000000BA0FFF77DFAE86884420DD131460EA0AF
:10101000FFF776FA00F0BCFE02460020034600907F
:101020000221E86801F0B4F8F8BD000000000020DB
:1010300054696D6572312043616C6C6261636B2031
:101040003A2564200A00000054696D65723220431D
:10105000616C6C6261636B203A2564200A000000B9
:101060002DE9F041044600F055FB94F9455004F198
:10107000240609E0606A48B1304600F063FF08B119
:1010800000F0BCFB6D1E6DB2002DF3DC4FF0FF369F
:1010900084F8456000F04CFB00F03CFB94F94450B0
:1010A00004F1100709E0206948B1384600F04AFF12
:1010B00008B100F0A3FB6D1E6DB2002DF3DC84F8C7
:1010C0004460BDE8F04100F033BB00002DE9F04181
:1010D0000546002600F0F6FB234F386808B9FFF7F5
:1010E0003BFD4DB105F00700C0F11000C1438D423A
:1010F00001D8054400E00025002D2FDD78688542E9
:101100002CD8194914310846046801E021460446E8
:101110006068A84202D220680028F7D1386884426B
:101120001CD00E680836206808606068411B1029D2
:1011300004D9601941606560FFF7D2FD6168786885
:10114000401A7860BA68904200D2B86041F000401E
:10115000606000202060F868401CF86000F056FFD6
:101160003046BDE8F08100007000002024384FF0C8
:101170008073036221F00101C16104498161426011
:101180006FF0020140F8201970470000C90F0008F5
:1011900070B588B00346002035A104AE91E8340054
:1011A000C96834C6079133A106C9CDE9021231A13D
:1011B00006C9CDE90012324C6168C1F38101314AA0
:1011C000002930D001292ED002292CD1616801F4E8
:1011D0008031B1F5803F11D052106168C1F3834175
:1011E00065682D0101D541F0100165686D0001D5DC
:1011F00041F020010F290ED2891C13E0E16A01F0B1
:10120000804101B1204A616801F40031B1F5003F2D
:10121000E3D15208E1E7A1F10F052F2D01D8491CB8
:1012200000E03F214A436168C1F3031104AD695CEA
:1012300022FA01F16568C5F3022502AE755D21FA57
:1012400005F56468C4F3C2241DF8044021FA04F4CF
:1012500043B1012B08D0022B08D0032B00D120462C
:1012600008B070BD1046FBE70846F9E72846F7E7E7
:101270000000000000000000010203040607080946
:101280000010024000127A00006CDC02054901EBFC
:1012900090110A6800F01F030120984002430A6081
:1012A0007047000000100240054901EB90110A68E8
:1012B00000F01F030120984082430A60704700003D
:1012C00000100240054901EB90110A6800F01F036D
:1012D0000120984002430A6070470000001002405D
:1012E00000212A48026842F4803202604FF6FF7300
:1012F000491C026802F400320AB99942F8D1016827
:10130000890300D4FEE7C16941F08051C1612049E1
:101310000A6842F440420A604268426042684260A1
:10132000426842F480624260426822F44032426085
:10133000426842F4403242604268164B1A404260B2
:101340004268154B1A434260026842F080720260A4
:1013500002689201FCD50A6842F480320A604A6849
:10136000D203FCD50A6842F400320A604A6892034C
:10137000FCD5416821F003014160416841F0020160
:10138000416041680907FCD5704700000010024029
:1013900000700040FFFFC3B700003408FFF7A0BF94
:1013A000C94301617047C2680A400069084202D01F
:1013B0000AB10120704700207047000070B5044654
:1013C0000D460020174BE21A1E159C4216D008DC71
:1013D000154962180ED0B24217D10220FFF7D8FE8D
:1013E00013E0B2420ED0B2F56C4F0ED10320FFF7DE
:1013F000CFFE0AE00220FFF7CBFE06E00220FFF757
:10140000C7FE02E00220FFF7C3FE00EB5500B0FB71
:10141000F5F04FF6F071014000F00F021143A160AA
:1014200070BD0000004C004000BCFFBFC1F30801CC
:101430004160704710B5214A811A1315904228D097
:101440000EDC1F4940181AD0984236D140F212449F
:101450002046FFF737FF2046BDE81040FFF724BFC6
:10146000994220D0B1F56C4F27D140F20E3420467E
:10147000FFF728FF2046BDE81040FFF715BF40F2F8
:1014800011442046FFF71EFF2046BDE81040FFF73D
:101490000BBF40F213442046FFF714FF2046BDE87F
:1014A0001040FFF701BF40F214442046FFF70AFF47
:1014B0002046BDE81040FFF7F7BE10BD004C0040CD
:1014C00000BCFFBFC16841F40051C160704700EB30
:1014D0009110006801F01F0201219140084201D0E3
:1014E0000120704700207047426922F40072426177
:1014F000426901F400710A4342617047426922F473
:1015000080724261426901F480710A43426170470E
:101510002DE9F0470446884616461F46304830F805
:101520001400FFF7B3FE2E48001D30F81400FFF73B
:10153000ADFEDFF8AC90032209F11A09A9F1080504
:1015400059F8343055F824001821FFF7B5F809EBA5
:10155000C4000322436855F824000421FFF7ACF8C7
:10156000083D55F82400FFF765FF55F82400414673
:10157000FFF724FF55F82400002100F083F855F808
:101580002400002100F06CF855F82400002100F040
:1015900055F855F824000021FFF7B0FF55F8240056
:1015A0000021FFF7A1FF55F82400042100F04EF8B8
:1015B00055F82400082100F05BF855F82400FFF7E7
:1015C00081FFA5F10C003A46005D3146FFF72CF98A
:1015D00055F82400BDE8F04740F2053100F002B8AC
:1015E000E621000800EB9110026801F01F030121C1
:1015F00099400A4302607047C1F3044301229A40B4
:1016000000EB9150D2430260704730B5C1F38912AC
:10161000825801F01F04012505FA04F31A4000EB7B
:1016200091500068C1F3044105FA01F31840002805
:1016300002D00AB1012030BD002030BDC26822F4C2
:10164000C062C260C2680A43C2607047C26822F0CA
:101650000402C260C26801F004010A43C26070471C
:10166000026922F44052026102690A430261704732
:10167000C26822F00802C260C26801F008010A4391
:10168000C2607047C26822F48052C260C2680A43D6
:10169000C26070470169D0E901329A60D0E9012344
:1016A0005A604A68824201D182684A60002202611F
:1016B0000868401E0860086870470000014880689C
:1016C000704700001C00002000F1080141604FF04D
:1016D000FF328260C160016100210160704700211A
:1016E0000161704730B50C68621C02D000F108023D
:1016F00002E0026904E01A4653681D68A542FAD95F
:1017000053684B6099608A60516008610168491CA8
:10171000016030BDBF2080F31188BFF34F8FBFF34E
:101720006F8F02480168491C016070478C000020DF
:1017300004490868401E0860002801D180F3118820
:10174000704700008C00002070B500281BD00838BE
:1017500004466068002816DA2168002913D120F0B9
:101760000040606000F0AEF8074D606869680844AA
:1017700068602046FFF7B4FA2869401C2861BDE87C
:10178000704000F043BC70BD700000204FF0E020BE
:1017900000210161816102494161072101617047B6
:1017A000BFD4010070B504460D461646FFF7B2FFE0
:1017B00094F944304FF000005B1C01D184F84400E0
:1017C00094F94510491C01D184F84500FFF7B0FF9A
:1017D000A06B28B93246294604F1240000F024F811
:1017E0002046BDE87040FFF73BBC000002490A6A92
:1017F0000260C968416070471C0000200149012057
:10180000C86170471C00002010B50C4605490968E6
:101810001831FFF767FF2046BDE810400121FFF7B0
:101820005BB800001C000020F0B403460C4658686A
:101830000D490D68E86185680E6835620D68866837
:10184000183575600D6818358560086883621868FA
:10185000401C1860002A01D04FF0FF342046F0BC35
:101860001146FFF739B800001C0000207CB5114874
:101870000025CDE900502B4680220FA1104800F032
:1018800045FA012801D100F065FC0A4C2C3C0128E6
:101890000ED1BF2080F31188BFF34F8FBFF36F8F3E
:1018A0004FF0FF30A06201206061E56000F036F883
:1018B000206B7CBD4800002049444C4500000000DE
:1018C000A10B00080248416B491C416370470000AE
:1018D0001C0000200F4A506B002802D00120D0616C
:1018E00070470020D0611069B0FA80F0C0F11F008D
:1018F000094900EB800001EB8000416849684160C4
:1019000000F10803994201D1496841604068C0680C
:10191000106070471C0000209400002010B50C4897
:10192000016841F47F010160016841F07F4101607D
:10193000FFF72CFF074900200860FEF729FC064846
:10194000016841F040410160FEF70EFC002010BD2F
:1019500020ED00E08C00002034EF00E010B5BF2047
:1019600080F31188BFF34F8FBFF36F8F00F016FA2B
:1019700018B104494FF080500860002080F31188AE
:1019800010BD000004ED00E0F8B505460E46174610
:101990000024002D16D0601EB0FBF5F0B04211D32C
:1019A00005FB06F010F1490F0CD84830FFF78EFB0D
:1019B00004463CB1224648323B4631462846009414
:1019C000FFF702F92046F8BD2DE9F04104460F4625
:1019D0000125002C3BD0E26BC2B3AE1EB6FBF2F188
:1019E000206C814233D3FFF795FED4E90F202168A4
:1019F00002FB0011A1600021A16321686160E06B1E
:101A00002268216C401E00FB0121E16084F84460E3
:101A100084F8456004F1100047B1FFF755FE04F16A
:101A20002400FFF751FEFFF783FE11E02169002932
:101A3000F9D000F087FA0028F5D007494FF0805020
:101A40000860BFF34F8FBFF36F8FECE7FFE7002510
:101A50002846BDE8F081000004ED00E02DE9FF47D5
:101A600082B004468A4699460025A8464FF0805623
:101A7000374FFFF74FFEA06BE16B884206D3B9F1F9
:101A8000020F03D00498F8B115B325E04A46514639
:101A90002046FFF70DF8616A51B104F1240000F00F
:101AA00051FA58B13E60BFF34F8FBFF36F8F05E01F
:101AB00020B13E60BFF34F8FBFF36F8FFFF738FE4B
:101AC000012006B0BDE8F087FFF732FE0020F8E7FE
:101AD0006846FFF78BFE0125FFF72AFEFFF7F2FEAF
:101AE000FFF718FE94F94400401C01D184F84480AB
:101AF00094F94500401C01D184F84580FFF718FE99
:101B000004A9684600F0D6F830B12046FFF7A8FADD
:101B100000F07CFA0020D4E72046FFF738F988B1BE
:101B200004F110000499FFF76FFE2046FFF798FAC2
:101B300000F06CFA00289CD13E60BFF34F8FBFF3DA
:101B40006F8F96E72046FFF78BFA00F05FFA90E779
:101B500004ED00E02DE9F041174604461A46BF2087
:101B6000EFF3118680F31188BFF34F8FBFF36F8FB0
:101B7000A06BE36B984206D3022A04D0002086F3C0
:101B80001188BDE8F08194F94550A06B2046FEF71E
:101B90008FFF681C08D0FFF791FD854202D26D1CB3
:101BA00084F845500120EAE7606A0028FAD004F181
:101BB000240000F0C7F90028F4D0002FF2D0012053
:101BC0003860EFE72DE9F74783B004468A460026E0
:101BD00000274FF08058DFF8D890FFF79BFDA56BEA
:101BE000C5B151462046FEF74FFF6D1EA563206923
:101BF00050B104F1100000F0A5F928B1C9F8008037
:101C0000BFF34F8FBFF36F8FFFF792FD012006B038
:101C1000BDE8F087059808B126B107E0FFF788FD19
:101C20000020F4E701A8FFF7E1FD0126FFF780FDA2
:101C3000FFF748FEFFF76EFD94F94400401C01D108
:101C400084F8447094F94500401C01D184F8457033
:101C5000FFF76EFD05A901A800F02CF858B1204649
:101C6000FFF7FEF900F0D2F92046FFF783F80028CD
:101C7000B3D00020CBE72046FFF77CF890B104F109
:101C800024000599FFF7C0FD2046FFF7E9F900F0B1
:101C9000BDF90028A1D1C9F80080BFF34F8FBFF371
:101CA0006F8F9AE72046FFF7DBF900F0AFF994E772
:101CB00004ED00E02DE9F04106460D46FFF72AFD50
:101CC0001148C36874681A1B29684F1C0AD037680A
:101CD000D0F820C00020674506D09C4204D80124DB
:101CE00028600CE000240AE0914206D9881A286096
:101CF0003046FFF77BFD002401E028600124FFF758
:101D000017FD2046BDE8F0811C0000202DE9FF5F93
:101D10008146DDE90E788A4616469B46B000FFF7FD
:101D2000D5F9054628000ED05420FFF7CFF9044618
:101D30002CB154212046FEF794FA256304E028468E
:101D4000FFF702FD00E000248CB10020CDE9024045
:101D5000CDE900785B46324651464846FEF740FFE3
:101D60002046FEF7FFFD012004B0BDE8F09F4FF0D4
:101D7000FF30F9E705484169002903D0406B18B1ED
:101D80000020704701207047022070471C0000208F
:101D90000148C068704700001C0000202DE9F04198
:101DA0000025434E706B002805D0B069401CB0611F
:101DB0002846BDE8F081F468641CF46044B9B06B57
:101DC000F16BB163F063306A401C3062FFF7C0F81A
:101DD000B06A384F84420FD34FF0000CB06B0068EC
:101DE00038B1B06BC068C1684868844212D2B06232
:101DF00002E04FF0FF30B0623068C06A00EB800054
:101E000057F82000012800D90125F0690028CFD01B
:101E10000125CDE74A69D1E902309860D1E9020392
:101E2000586050680B1D984201D1C8685060C1F8D5
:101E300014C01068401E10608A6A9AB1D1E9078008
:101E4000C8F80800D1E90708C8F80400506801F193
:101E50001808404501D1086A5060C1F828C01068D0
:101E6000401E1060C86A0122D6F81080824042EA03
:101E70000802326100EB800007EB800042688A6054
:101E80009068C860906843609360C86A00EB800007
:101E900007EB80024A6157F82020521C47F82020A7
:101EA000C86A3168C96A884298D9012596E7000056
:101EB0001C0000209400002010B504460020002CD7
:101EC0003BD0A16C491EA164636CE26A9A4234D093
:101ED000002932D1201DFFF7DDFB1849012230B95E
:101EE00094F82C000B6902FA00F083430B61606CDC
:101EF000E062C0F10500A061E06A0B6982401A430C
:101F00000A610F4A00EB800002EB80004068A0608D
:101F10008168E1608368211D59608160E06A00EB9F
:101F2000800002EB80006061E06A00EB800052F804
:101F30002010491C42F82010012010BD1C00002078
:101F40009400002070B5C068C068816AD0E907328B
:101F50009A60D0E907235A604B6800F11802934257
:101F600001D1036A4B60002585620B685B1E0B6024
:101F7000244B596B012499B1234D6968C1618E6866
:101F800006628E6872608A6085622968491C2960D1
:101F9000C06A1968C96A884232D90120DC6170BD03
:101FA0004169D0E90262B260D0E9022672604E68EF
:101FB000021D964201D1C6684E6045610D686D1ED6
:101FC0000D60C16A1E6904FA01F535431D610E4DAD
:101FD00001EB81018C3D05EB8101496881608E68D0
:101FE000C6608E6872608A60C16A01EB810105EB90
:101FF0008102426155F82120521C45F82120C7E793
:10200000002070BD1C000020200100202DE9F041BF
:102010000024A046FFF77EFB3E4D686B401E6863C0
:10202000686B002871D1A86800286ED000273A4A52
:1020300001264EE0D068C468A16AD4E907309860F0
:10204000D4E9070358604B6804F11800834201D1BA
:10205000206A4860A7620868401E08606169D4E988
:1020600002309860D4E9020358604B68201D834217
:1020700001D1E3684B6067610B685B1E0B60E16A2E
:10208000D5F810C006FA01F343EA0C032B61224B8A
:1020900001EB81018C3B03EB81014968A160D1F820
:1020A00008C0C4F80CC0D1F808C0CCF8040088609F
:1020B000E06A00EB800003EB8001616153F82010BF
:1020C000491C43F82010E06A2968C96A884200D395
:1020D000EE6110680028ADD10CB1FEF739FFAC6994
:1020E0003CB1FFF75BFE00B1EE61641E002CF8D13D
:1020F000AF61E86948B14FF0010808494FF08050DE
:102100000860BFF34F8FBFF36F8FFFF711FB40469F
:10211000BDE8F0811C0000202001002004ED00E05B
:102120002DE9FC4706460A9D0F4690469946282011
:10213000FEF7CCFF044654B1002084F82400CDE91A
:1021400000544B46424639463046FEF781FD204654
:10215000BDE8FC871CB50024FEF758FC0848006861
:1021600058B107480421001DCDE900108A01002361
:1021700004A10648FFF7CAFD044620461CBD000026
:102180005C000020546D722053766300D90F000864
:10219000FEB50646089F9C460020114D2C68002C79
:1021A0000ED0009101920296062911DAFFF7E2FDA6
:1021B000022806D000231A4669462868FFF74EFC1D
:1021C000FEBD00233A4669462868FFF747FCFEBD7E
:1021D0000023624669462046FFF7BCFCFEBD0000B6
:1021E0005C0000202526020602060E0611070000EC
:1021F0000038014000440040000801400008014050
:1022000000020000000400000400000008000000BC
:102210003022000800000020940000002005000883
:10222000C422000894000020F418000030050008C3
:10223000ED0F000801000000000000000000000099
:10224000000000000000000000000000000000008E
:10225000000000000000000000000000000000007E
:10226000000000000000000000000000000000006E
:10227000000000000000000000000000040000005A
:10228000000000000000000000000000000000004E
:10229000000000000000000000000000000000003E
:1022A000000000000000000000000000000000002E
:1022B000000000000000000000000000AAAAAAAA76
:0422C000000000001A
:0400000508000131BD
:00000001FF
