:020000040800F2
:100000008019002009020008A5020008A1020008CA
:10001000A30200089D02000851050008000000002E
:10002000000000000000000000000000490100087E
:100030009F02000800000000A5010008A9020008B6
:1000400027020008270200082702000827020008EC
:1000500027020008270200082702000827020008DC
:1000600027020008270200082702000827020008CC
:1000700027020008270200082702000827020008BC
:1000800027020008270200082702000827020008AC
:10009000270200082702000827020008270200089C
:1000A000270200083D030008270200082702000875
:1000B00061030008B9030008DD03000827020008F7
:1000C000270200082702000827020008270200086C
:1000D0002702000891040008B9040008E1040008A0
:1000E000270200082702000827020008270200084C
:1000F0006D040008270200082702000827020008F4
:10010000270200082702000801040008270200084F
:1001100027020008270200082504000849040008F7
:10012000270200082702000827020008270200080B
:10013000DFF810D000F0A0F8004800476D06000876
:10014000AFF30080801900202C4B19680868B0E8D4
:10015000F04F80F30988BFF36F8F4FF0000080F3FA
:10016000118870470000000008480068006880F3AC
:1001700008884FF0000080F3148862B661B6BFF3C0
:100180004F8FBFF36F8F00DF00BF00BF08ED00E0AF
:10019000DFF80C00016841F470010160704700BF96
:1001A00088ED00E0EFF30980BFF36F8F134B1A68FF
:1001B0001EF0100F08BF20ED108A20E9F04F1060EC
:1001C00009B44FF0BF0080F31188BFF34F8FBFF326
:1001D0006F8F01F043FC4FF0000080F3118809BCE1
:1001E00019680868B0E8F04F1EF0100F08BFB0ECB7
:1001F000108A80F30988BFF36F8F704714000020C6
:10020000EFF3058070470000074880470748004724
:10021000FEE7FEE7FEE7FEE7FEE7FEE7FEE7FEE7B6
:10022000FEE7FEE7FEE7FEE7B9020008310100083D
:1002300040EA01039B0703D009E008C9121F08C068
:10024000042AFAD203E011F8013B00F8013B521EE8
:10025000F9D27047D2B201E000F8012B491EFBD25F
:1002600070470022F6E710B513460A4604461946C1
:10027000FFF7F0FF204610BD064C074D06E0E06892
:1002800040F0010394E8070098471034AC42F6D3DD
:10029000FFF752FF3821000858210008FEE7704799
:1002A000FEE7FEE77047000002488168491C816054
:1002B00001F018BC0800002082B01D48016841F41C
:1002C000700101601B48016841F001010160016893
:1002D0008907FCD5416841F080014160002201920C
:1002E00002E00199491C019101995029F9D3416813
:1002F00041F090014160019202E00199491C019195
:1003000001995029F9D3416821F003014160016846
:10031000094B194001604FF41F018160016821F40D
:10032000802101604260C26202B000F033BF000071
:1003300088ED00E000100240FFFFF6FE10B5074C0C
:100340000121204601F043F8002805D02046BDE8F1
:100350001040012101F038B810BD0000002C014010
:1003600038B501218D07284601F031F800281ED04C
:10037000002000900E4C6A460021206801F086FAA9
:100380006A460021206801F081FA6A46002120684F
:1003900001F07CFA009830B10649A8100860BFF35C
:1003A0004F8FBFF36F8F0121284601F00DF838BD44
:1003B0000400002004ED00E010B5074C01212046A8
:1003C00001F005F8002805D02046BDE810400121C5
:1003D00000F0FABF10BD00000004004010B5074C4B
:1003E0000121204600F0F3FF002805D02046BDE89B
:1003F0001040012100F0E8BF10BD000000080040DF
:1004000010B5074C0121204600F0E1FF002805D07F
:100410002046BDE81040012100F0D6BF10BD00000D
:10042000000C004010B5074C0121204600F0CFFF22
:10043000002805D02046BDE81040012100F0C4BFCF
:1004400010BD00000010004010B5074C01212046EF
:1004500000F0BDFF002805D02046BDE81040012176
:1004600000F0B2BF10BD00000014004010B5074CF2
:100470000121204600F0ABFF002805D02046BDE852
:100480001040012100F0A0BF10BD00000034014069
:1004900070B5074C074D2146284601F00CF900289D
:1004A00005D021462846BDE8704001F0FBB870BD7C
:1004B000050305000038014070B5074C074D214683
:1004C000284601F0F8F8002805D021462846BDE866
:1004D000704001F0E7B870BD05030500004400401E
:1004E00070B5074C074D2146284601F0E4F8002876
:1004F00005D021462846BDE8704001F0D3B870BD54
:1005000005030500004800404FF4FF740021224617
:10051000084600F067FF18B103A000F01BF8F5E7EC
:1005200006A000F017F8F1E775617274207461732A
:100530006B206E6F746966790D0A000075617274C4
:10054000207461736B2074696D656F75740D0A009A
:10055000FEE70000014A024900F013B8A5050008B3
:100560008800002002E008C8121F08C1002AFAD142
:1005700070477047002001E001C1121F002AFBD123
:1005800070472DE9F04116460F460446002503E06A
:100590003946B047641C6D1C20780028F8D12846E5
:1005A000BDE8F08170B50446064D0721284600F0ED
:1005B000E4FF0028F9D0E1B2284600F08DFF204684
:1005C00070BD0000003801402DE9F04301F00F0438
:1005D000CD0602D5042A18D0144300224FF00F0C88
:1005E000012707FA02F51D401AD0D0F800909600B6
:1005F0000CFA06F829EA080904FA06F848EA090894
:10060000282908D0482908D008E044F00304C26B28
:100610001A43C263E1E7456100E00561C0F800806C
:10062000521C92B2082ADCD3082207FA02F51D40B8
:1006300016D0D0F80490A2F10806B6000CFA06F81D
:1006400029EA080904FA06F848EA0908282902D024
:10065000482902D002E0456100E00561C0F804804D
:10066000521C92B2102AE0D3BDE8F0831CB50123DE
:100670001A464FF4E131002000F0A0FF0124234688
:100680004EF65F2240F2CF712046009400F02CF825
:1006900009480023CDE90040802208A10A4801F062
:1006A00045FB0549091F0860012802D007A0FFF794
:1006B00051FF01F09FF9FEE704000020737461729E
:1006C000745F7461736B00000905000873746172D4
:1006D000745F7461736B2063726561746520666119
:1006E000696C65640D0A00002DE9FF4704460C9F04
:1006F000884691461E46174830F8140000F0C2FCA8
:10070000144D103555F8240000F046FDADF800807A
:10071000CDF808900020ADF80200ADF80400ADF867
:1007200006008DF80C0055F82400694600F0FEFD27
:10073000A5F118003A46005D314600F00DF855F875
:100740002400012100F03CFE55F8240000F0E8FDF3
:10075000BDE8FF870821000870B505460E46002356
:10076000002423480168C1F30221072932D001681F
:10077000C1F3022106292FD00168C1F30221052906
:100780002DD00168C1F3022104292BD00068C0F3E9
:100790000220032829D04FF4A06000F02BF8022398
:1007A0000224C3F104008640C4F104010F20C840B4
:1007B00010403043000105F1E02181F8000405F00C
:1007C0001F01012088406909890001F1E021C1F879
:1007D000000170BD0424E4E701230324E1E70223C0
:1007E0000224DEE703230124DBE70423D9E700002A
:1007F0000CED00E002490843024908607047000020
:100800000000FA050CED00E02DE9F04104460F462A
:100810001E4DEE682868001D00F092FF38B9286868
:1008200090F82C1001208840296981432961601CBF
:1008300015D1A7B1164948682A68906082682B686C
:10084000DA602A688368121D5A602A68121D826065
:10085000286841610868401C0860BDE8F0813444A4
:1008600028684460B44206D22968E86B091DBDE8D7
:10087000F04100F086BF2968A86B091D00F081FFD8
:10088000A86A8442E9D2AC62E7E7000014000020C5
:100890004001002070B5044600F08CFF244DA8688C
:1008A000401CA860286810B1686938B10CE02C6061
:1008B000A868012808D100F02BF905E02868E16A52
:1008C000C06A884200D82C60686A401C6862E06A8E
:1008D00001212A69814011432961164A00EB8000F9
:1008E00002EB80004068A0608168E1608368211DA0
:1008F00059608160E06A00EB800002EB8001616179
:1009000052F82010491C42F8201000F061FF68697D
:1009100000280CD02868E16AC06A884207D20649DC
:100920004FF080500860BFF34F8FBFF36F8F70BDE3
:10093000140000208C00002004ED00E010B500F051
:1009400039FF0C4C206880B90B4800F00CFF0A48B6
:10095000143000F008FF0848E060143020610022E5
:100960000C21052001F0D4F82060BDE8104000F013
:100970002FBF0000540000205401002070B50C4D22
:100980000C4E11E000F016FFF068C468201D00F066
:10099000D7FEA868401EA8606868401E686000F026
:1009A00017FF204600F01CF868680028EAD170BDE7
:1009B000140000202C01002030B40B46026C002AE9
:1009C0000CD0C1681144C1608468A14201D30168A0
:1009D000C160C16830BC1846FFF72ABC30BC704704
:1009E00010B50446206B00F0FFFE2046BDE8104025
:1009F00000F0FABE0749CA681168002904D0002136
:100A0000016019B1002070470121F9E7D068006842
:100A100070470000540000204FF4A0510E484207D8
:100A200006D0C01D20F007000B49411AC1F5A051A6
:100A30000A4B186000225A600144083921F007016E
:100A4000143B19604A600A600A1A426001604068FB
:100A500098605860704700007C0100207C000020F6
:100A6000074E4FF08054074DFFF788FF306801288C
:100A7000FAD92C60BFF34F8FBFF36F8FF4E70000FC
:100A80008C00002004ED00E003460098002905D00A
:100A90000260C3630164012101F05AB80060F8E705
:100AA0002DE9F0478146DDE908560A9C9846521E1A
:100AB000206B00EB820020F0070700290CD00020FB
:100AC00023180A5C83F834200A5C12B1401C1028F9
:100AD000F6D3002084F84300052D00D30425E562F9
:100AE0006564201D00F04AFE04F1180000F046FE87
:100AF0002461C5F10500A06164624246494638465A
:100B000000F030FA2060002E00D03460BDE8F0879D
:100B100070B50024124D04EB840005EB800000F05A
:100B200022FE641C052CF6D30D48643000F01BFE39
:100B30000B48783000F017FE09488C3000F013FEA7
:100B40000748A03000F00FFE0548B43000F00BFE5F
:100B500003490448643181631431C16370BD0000EE
:100B60008C0000201400002030B5134900E011462D
:100B70000A688242FBD34B685C18844203D1406808
:100B80001844486008460D6844682318AB420DD1EC
:100B9000094B143B1B689A4206D0526822444260BB
:100BA0000A681268026002E0036000E002608142AD
:100BB00000D0086030BD00007C00002070B500242B
:100BC000416000610C4D91420AD8D11A826991426C
:100BD00001D301240EE0011D286900F0D2FD09E0D7
:100BE0009A4203D2994201D3012403E0011DE8682F
:100BF00000F0C7FD204670BD5400002010B504462B
:100C000000F0D8FDA06B20B1002400F0E1FD2046EB
:100C100010BD0124F9E7000070B505460E460D48E9
:100C2000C068C068C468201D00F08AFD94F82400E4
:100C3000410705D532462946204600F0ABF803E0CF
:100C400000F0FE0084F824002046216ABDE87040D0
:100C500008470000540000207FB5324E5AE001984A
:100C6000002857DB039C606910B1201D00F068FD6F
:100C7000684600F0B3F8054601980A284AD2DFE832
:100C800000F0490505282E3D0505282E94F824007E
:100C900040F0010084F824000298A1690346014451
:100CA0002A462046FFF78AFF38B394F8240041070C
:100CB00007D50298A1692A460144204600F06AF847
:100CC00003E000F0FE0084F82400216A20468847F3
:100CD00020E014F8240F00F0FE0020701AE094F8D1
:100CE000240040F0010084F824000298A06141191A
:100CF0002B462A462046FFF761FF0BE094F82400BC
:100D0000810703D4204600F06FFD03E000F0FE00F1
:100D100084F82400002201A9306800F063FF002855
:100D20009DD17FBD54000020F8B506460D4600F069
:100D30008DFE684600F052F80446009810B101F0AC
:100D400021F9F8BD45B9A64206D801F01BF92146A4
:100D50003046FFF761FFF8BD0C481DB10169096815
:100D600091B10025311B2A46006800F06BFD01F0AF
:100D700009F90028EFD106494FF080500860BFF311
:100D80004F8FBFF36F8FF8BD0125EBE754000020B4
:100D900004ED00E070B505460C46164604E0A8696F
:100DA0000444296A28468847A8692346011932461F
:100DB0002846FFF703FF0028F1D170BD0648816B7C
:100DC0000968002904D0816BC9680968816270478D
:100DD0004FF0FF31816270471400002070B5054666
:100DE00000F0D8FF0446074EB068844204D200F0F9
:100DF0000BF80120286001E000202860B460204644
:100E000070BD00005400002070B5094C4FF0FF3554
:100E100004E0C06800682946FFF7FEFEE06802684B
:100E2000002AF6D1E0682169E160206170BD000010
:100E300054000020BF2080F31188BFF34F8FBFF311
:100E40006F8FFEE708B56846FFF7D4FD0099FFF7FE
:100E50006BFFFFF701FFF6E72DE9F041044600F0D4
:100E6000A9FC94F9455004F1240609E0606A48B1F0
:100E7000304601F023F808B100F084FD6D1E6DB21C
:100E8000002DF3DC4FF0FF3684F8456000F0A0FC45
:100E900000F090FC94F9445004F1100709E0206937
:100EA00048B1384601F00AF808B100F06BFD6D1E3C
:100EB0006DB2002DF3DC84F84460BDE8F04100F031
:100EC00087BC00002DE9F0410546002600F0BEFD7C
:100ED000234F386808B9FFF79FFD4DB105F00700B3
:100EE000C0F11000C1438D4201D8054400E0002547
:100EF000002D2FDD786885422CD819491431084619
:100F0000046801E0214604466068A84202D22068D5
:100F10000028F7D1386884421CD00E680836206853
:100F200008606068411B102904D960194160656040
:100F3000FFF71AFE61687868401A7860BA689042D4
:100F400000D2B86041F00040606000202060F86886
:100F5000401CF86001F016F83046BDE8F081000052
:100F60006800002024384FF08073036221F00101F3
:100F7000C1610449816142606FF0020140F82019AB
:100F800070470000350E000870B588B00346002099
:100F900035A104AE91E83400C96834C6079133A185
:100FA00006C9CDE9021231A106C9CDE90012324CC1
:100FB0006168C1F38101314A002930D001292ED066
:100FC00002292CD1616801F48031B1F5803F11D044
:100FD00052106168C1F3834165682D0101D541F06C
:100FE000100165686D0001D541F020010F290ED276
:100FF000891C13E0E16A01F0804101B1204A616877
:1010000001F40031B1F5003FE3D15208E1E7A1F16D
:101010000F052F2D01D8491C00E03F214A4361688C
:10102000C1F3031104AD695C22FA01F16568C5F3EF
:10103000022502AE755D21FA05F56468C4F3C22489
:101040001DF8044021FA04F443B1012B08D0022B0F
:1010500008D0032B00D1204608B070BD1046FBE736
:101060000846F9E72846F7E7000000000000000006
:1010700001020304060708090010024000127A006A
:10108000006CDC02054901EB90110A6800F01F03B7
:101090000120984002430A6070470000001002409F
:1010A000054901EB90110A6800F01F0301209840E8
:1010B00082430A607047000000100240054901EBBE
:1010C00090110A6800F01F030120984002430A6053
:1010D000704700000010024000212A48026842F4D4
:1010E000803202604FF6FF73491C026802F400323E
:1010F0000AB99942F8D10168890300D4FEE7C169B1
:1011000041F08051C16120490A6842F440420A60BE
:101110004268426042684260426842F480624260D3
:10112000426822F440324260426842F440324260F7
:101130004268164B1A4042604268154B1A4342609F
:10114000026842F08072026002689201FCD50A686F
:1011500042F480320A604A68D203FCD50A6842F43D
:1011600000320A604A689203FCD5416821F003010D
:101170004160416841F00201416041680907FCD5C6
:10118000704700000010024000700040FFFFC3B72E
:1011900000003408FFF7A0BF10B55E4A811A14158D
:1011A00090427DD029DC5C4AA0EB0201904266D0DF
:1011B00011DCB0F1804F50D05849401855D0A042B2
:1011C0006FD140F202442046FFF778FF2046BDE889
:1011D0001040FFF765BFA1425BD0B1F5006F65D04D
:1011E000B1F5406F5DD140F206442046FFF766FF3F
:1011F0002046BDE81040FFF753BFB1F5983F5FD0E0
:1012000011DCA1427AD0B1F5883F1CD0B1F58C3FFA
:101210007ED140F20D342046FFF750FF2046BDE856
:101220001040FFF73DBFB1F59A3F53D0B1F59C3F59
:101230006ED140F215342046FFF740FF2046BDE84E
:101240001040FFF72DBF40F20B342046FFF736FF6A
:101250002046BDE81040FFF723BF2046FFF72EFFD2
:101260002046BDE81040FFF71BBF40F20144204676
:10127000FFF724FF2046BDE81040FFF711BF40F202
:1012800003442046FFF71AFF2046BDE81040FFF751
:1012900007BF40F204442046FFF710FF204601E05C
:1012A00022E035E0BDE81040FFF7FABE40F2054409
:1012B0002046FFF703FF2046BDE81040FFF7F0BED1
:1012C00040F213342046FFF7F9FE2046BDE81040F7
:1012D000FFF7E6BE4FF445742046FFF7EFFE2046C9
:1012E000BDE81040FFF7DCBE40F207442046FFF7A0
:1012F000E5FE2046BDE81040FFF7D2BE4FF4816402
:101300002046FFF7DBFE2046BDE81040FFF7C8BED1
:1013100010BD0000001C0040000C004000FCFFBF9E
:10132000016841F0010101607047000030B50A8892
:1013300082621C4B1C4A98420DD0B0F1804F0AD0FB
:101340001A4CA04207D01A4CA04204D0194CA0421B
:1013500001D090420BD1046824F07004046004684A
:101360004D882C43046004688D882C4304608C688D
:10137000C462114CA0420AD0104CA04207D00468AD
:1013800024F4407404600468CD882C4304609842BF
:1013900001D0904201D1097B0163416941F0010113
:1013A000416130BD002C0140003401400004004088
:1013B00000080040000C00400010004000140040F5
:1013C000C2680A43C2607047C94301617047C2687E
:1013D0000A400069084202D00AB10120704700208B
:1013E000704700002DE9F04104460F46154600F015
:1013F000E1F91B4E306800EB8400C06C88B931689D
:101400000120214481F850005DB101212846FFF7F9
:10141000FBF914494FF080500860BFF34F8FBFF3C2
:101420006F8F00F0D5F900F0C5F9306800EB84004B
:10143000C56C002055B127B1316801EB8401C86447
:1014400004E03268691E02EB8402D16431682144F1
:1014500081F8500000F0BCF92846BDE8F08100009A
:101460001400002004ED00E070B504460D46002095
:10147000174BE21A1E159C4216D008DC154962185B
:101480000ED0B24217D10220FFF77EFD13E0B24228
:101490000ED0B2F56C4F0ED10320FFF775FD0AE0B8
:1014A0000220FFF771FD06E00220FFF76DFD02E06C
:1014B0000220FFF769FD00EB5500B0FBF5F04FF699
:1014C000F071014000F00F021143A16070BD0000F7
:1014D000004C004000BCFFBFC1F3080141607047F1
:1014E00010B5214A811A1315904228D00EDC1F49ED
:1014F00040181AD0984236D140F212442046FFF7E5
:10150000DDFD2046BDE81040FFF7CABD994220D05E
:10151000B1F56C4F27D140F20E342046FFF7CEFDD7
:101520002046BDE81040FFF7BBBD40F21144204605
:10153000FFF7C4FD2046BDE81040FFF7B1BD40F203
:1015400013442046FFF7BAFD2046BDE81040FFF7E0
:10155000A7BD40F214442046FFF7B0FD2046BDE889
:101560001040FFF79DBD10BD004C004000BCFFBF08
:10157000C16841F40051C160704700EB91100068F0
:1015800001F01F0201219140084201D00120704763
:1015900000207047426922F400724261426901F4FE
:1015A00000710A4342617047426922F480724261CD
:1015B000426901F480710A43426170472DE9F047A6
:1015C0000446884616461F46304830F81400FFF798
:1015D00059FD2E48001D30F81400FFF753FDDFF8C9
:1015E000AC90032209F11A09A9F1080559F8343021
:1015F00055F824001821FEF7E7FF09EBC400032289
:10160000436855F824000421FEF7DEFF083D55F835
:101610002400FFF765FF55F824004146FFF724FF3B
:1016200055F82400002100F083F855F8240000212B
:1016300000F06CF855F82400002100F055F855F83A
:1016400024000021FFF7B0FF55F824000021FFF728
:10165000A1FF55F82400042100F04EF855F82400AD
:10166000082100F05BF855F82400FFF781FFA5F191
:101670000C003A46005D3146FFF76EF855F824003D
:10168000BDE8F04740F2053100F002B8D62000086E
:1016900000EB9110026801F01F03012199400A43F9
:1016A00002607047C1F3044301229A4000EB91505D
:1016B000D2430260704730B5C1F38912825801F0FD
:1016C0001F04012505FA04F31A4000EB915000684D
:1016D000C1F3044105FA01F31840002802D00AB111
:1016E000012030BD002030BDC26822F4C062C2605B
:1016F000C2680A43C2607047C26822F00402C26036
:10170000C26801F004010A43C2607047026922F412
:101710004052026102690A4302617047C26822F0C6
:101720000802C260C26801F008010A43C260704743
:10173000C26822F48052C260C2680A43C260704725
:101740000169D0E901329A60D0E901235A604A6800
:10175000824201D182684A60002202610868401E0C
:1017600008600868704700F1080141604FF0FF32DF
:101770008260C16001610021016070470021016148
:10178000704730B50C68621C02D000F1080202E01C
:10179000026904E01A4653681D68A542FAD95368E5
:1017A0004B6099608A60516008610168491C016062
:1017B00030BD0000BF2080F31188BFF34F8FBFF30F
:1017C0006F8F02480168491C016070478400002047
:1017D00004490868401E0860002801D180F3118880
:1017E000704700008400002070B500281BD0083826
:1017F00004466068002816DA2168002913D120F019
:101800000040606000F022F9074D60686968084494
:1018100068602046FFF7A8F92869401C2861BDE8E8
:10182000704000F0AFBB70BD680000204FF0E020BA
:101830000021016181610249416107210161704715
:10184000BFD4010070B504460D461646FFF7B2FF3F
:1018500094F944304FF000005B1C01D184F844003F
:1018600094F94510491C01D184F84500FFF7B0FFF9
:10187000A06B28B93246294604F1240000F098F8FC
:101880002046BDE87040FFF7E7BA0000F0B5BF237F
:10189000EFF3118483F31188BFF34F8FBFF36F8F82
:1018A000431813F8505F02261E7000EB8101CB6CC9
:1018B0005B1CCB64012D1BD12C4D696B0126D1B172
:1018C0002B4F7968C1618B680362D1F808C000F1C1
:1018D0001803CCF804308B6087623968491C396082
:1018E000C06A2968C96A884202D902B11660EE61ED
:1018F00084F31188F0BD4169D0E90273BB60D0E97F
:1019000002377B604F68031D9F4201D1C7684F605B
:10191000002747610F687F1E0F60C16AD5F810C0AD
:1019200006FA01F747EA0C072F61114F01EB81011D
:101930008C3F07EB810149688160D1F808C0C0F88D
:101940000CC0D1F808C0CCF804308B60C16A01EB40
:10195000810107EB81014161C16A01EB810157F807
:1019600021305B1C47F82130BAE70000140000204A
:101970001801002002490A6A0260C9684160704784
:101980001400002001490120C861704714000020A4
:1019900010B50C46054909681831FFF7F2FE2046DC
:1019A000BDE810400121FEF72FBF00001400002009
:1019B000F0B403460C4658680D490D68E861856827
:1019C0000E6835620D688668183575600D681835C3
:1019D0008560086883621868401C1860002A01D07E
:1019E0004FF0FF342046F0BC1146FEF70DBF00005B
:1019F000140000207CB511480025CDE900502B468D
:101A000080220FA1104800F091F9012801D100F0C7
:101A100043FB0A4C2C3C01280ED1BF2080F31188D7
:101A2000BFF34F8FBFF36F8F4FF0FF30A0620120E5
:101A30006061E56000F036F8206B7CBD400000205E
:101A400049444C4500000000610A00080248416B0F
:101A5000491C416370470000140000200F4A506B7E
:101A6000002802D00120D06170470020D0611069A9
:101A7000B0FA80F0C0F11F00094900EB800001EBD3
:101A8000800041684968416000F10803994201D132
:101A9000496841604068C0681060704714000020C9
:101AA0008C00002010B50C48016841F47F010160F2
:101AB000016841F07F410160FFF7B8FE074900204F
:101AC0000860FEF765FB0648016841F0404101608F
:101AD000FEF74AFB002010BD20ED00E0840000204E
:101AE00034EF00E010B5BF2080F31188BFF34F8FB3
:101AF000BFF36F8F00F054F918B104494FF08050D4
:101B00000860002080F3118810BD000004ED00E0A3
:101B1000F8B505460E4617460024002D16D0601E67
:101B2000B0FBF5F0B04211D305FB06F010F1490F00
:101B30000CD84830FFF7C6F904463CB1224648327B
:101B40003B46314628460094FEF79EFF2046F8BDEE
:101B50002DE9F04104460F460125002C3BD0E26BF5
:101B6000C2B3AE1EB6FBF2F1206C814233D3FFF755
:101B700021FED4E90F20216802FB0011A1600021A1
:101B8000A16321686160E06B2268216C401E00FB4C
:101B90000121E16084F8446084F8456004F110009C
:101BA00047B1FFF7E0FD04F12400FFF7DCFDFFF78C
:101BB0000FFE11E021690029F9D000F07FF900281B
:101BC000F5D007494FF080500860BFF34F8FBFF347
:101BD0006F8FECE7FFE700252846BDE8F0810000A5
:101BE00004ED00E02DE9F74783B004468A4600265D
:101BF00000274FF08058DFF8D890FFF7DBFDA56B8A
:101C0000C5B151462046FEF7D7FE6D1EA56320697B
:101C100050B104F1100000F051F928B1C9F800806A
:101C2000BFF34F8FBFF36F8FFFF7D2FD012006B0D8
:101C3000BDE8F087059808B126B107E0FFF7C8FDB9
:101C40000020F4E701A8FFF795FE0126FFF7C0FD8D
:101C5000FFF7FCFEFFF7AEFD94F94400401C01D1F4
:101C600084F8447094F94500401C01D184F8457013
:101C7000FFF7AEFD05A901A800F02CF858B12046E9
:101C8000FFF7EAF800F07EF92046FEF7B7FF0028DC
:101C9000B3D00020CBE72046FEF7B0FF90B104F1AF
:101CA00024000599FFF774FE2046FFF7D5F800F0F1
:101CB00069F90028A1D1C9F80080BFF34F8FBFF3A5
:101CC0006F8F9AE72046FFF7C7F800F05BF994E7BB
:101CD00004ED00E02DE9F04106460D46FFF76AFDF0
:101CE0001148C36874681A1B29684F1C0AD03768EA
:101CF000D0F820C00020674506D09C4204D80124BB
:101D000028600CE000240AE0914206D9881A286075
:101D10003046FFF72FFE002401E028600124FFF782
:101D200057FD2046BDE8F081140000202DE9FF5F3B
:101D30008146DDE90E788A4616469B46B000FFF7DD
:101D4000C1F8054628000ED05420FFF7BBF8044622
:101D50002CB154212046FEF784FA256304E028467E
:101D6000FFF742FD00E000248CB10020CDE90240E5
:101D7000CDE900785B46324651464846FEF790FE74
:101D80002046FEF787FD012004B0BDE8F09F4FF02C
:101D9000FF30F9E70148C0687047000014000020D8
:101DA0002DE9F0410025434E706B002805D0B06945
:101DB000401CB0612846BDE8F081F468641CF46002
:101DC00044B9B06BF16BB163F063306A401C3062B0
:101DD000FEF7F4FFB06A384F84420FD34FF0000C87
:101DE000B06B006838B1B06BC068C16848688442A5
:101DF00012D2B06202E04FF0FF30B0623068C06AC9
:101E000000EB800057F82000012800D90125F06977
:101E10000028CFD00125CDE74A69D1E9023098608A
:101E2000D1E90203586050680B1D984201D1C8687F
:101E30005060C1F814C01068401E10608A6A9AB1E0
:101E4000D1E90780C8F80800D1E90708C8F80400FC
:101E5000506801F11808404501D1086A5060C1F886
:101E600028C01068401E1060C86A0122D6F8108091
:101E7000824042EA0802326100EB800007EB8000FA
:101E800042688A609068C860906843609360C86ADE
:101E900000EB800007EB80024A6157F82020521CBB
:101EA00047F82020C86A3168C96A884298D9012554
:101EB00096E70000140000208C00002070B5C06878
:101EC000C068816AD0E907329A60D0E907235A6076
:101ED0004B6800F11802934201D1036A4B60002560
:101EE00085620B685B1E0B60244B596B012499B112
:101EF000234D6968C1618E6806628E6872608A606F
:101F000085622968491C2960C06A1968C96A8842C3
:101F100032D90120DC6170BD4169D0E90262B26052
:101F2000D0E9022672604E68021D964201D1C66851
:101F30004E6045610D686D1E0D60C16A1E6904FA30
:101F400001F535431D610E4D01EB81018C3D05EB23
:101F50008101496881608E68C6608E6872608A609F
:101F6000C16A01EB810105EB8102426155F8212034
:101F7000521C45F82120C7E7002070BD1400002046
:101F8000180100202DE9F0410024A046FFF712FCC3
:101F90003E4D686B401E6863686B002871D1A8686D
:101FA00000286ED000273A4A01264EE0D068C46867
:101FB000A16AD4E907309860D4E9070358604B68F8
:101FC00004F11800834201D1206A4860A7620868C2
:101FD000401E08606169D4E902309860D4E90203C8
:101FE00058604B68201D834201D1E3684B606761F4
:101FF0000B685B1E0B60E16AD5F810C006FA01F3AE
:1020000043EA0C032B61224B01EB81018C3B03EB78
:1020100081014968A160D1F808C0C4F80CC0D1F8AA
:1020200008C0CCF804008860E06A00EB800003EB95
:102030008001616153F82010491C43F82010E06AC8
:102040002968C96A884200D3EE6110680028ADD1C2
:102050000CB1FEF7B3FEAC693CB1FFF7A1FE00B1D5
:10206000EE61641E002CF8D1AF61E86948B14FF011
:10207000010808494FF080500860BFF34F8FBFF34D
:102080006F8FFFF7A5FB4046BDE8F08114000020EC
:102090001801002004ED00E01CB50024FEF74EFC02
:1020A0000848006858B107480421001DCDE9001018
:1020B0008A01002304A10648FFF738FE04462046A3
:1020C0001CBD000054000020546D72205376630044
:1020D000450E00082526020602060E06110700001E
:1020E0000038014000440040000801400008014061
:1020F00000020000000400000400000008000000CE
:10210000191C1D1E3236372C0B060007010702076B
:102110000307040705070D06002C014000000040DE
:102120000004004000080040000C00400010004087
:102130000014004000340140582100080000002035
:102140008C00000064050008E42100088C000020D9
:10215000F4180000740500080000000000000000F2
:10216000000000000000000000000000000000006F
:10217000000000000000000000000000000000005F
:10218000000000000000000000000000000000004F
:10219000000000000000000000000000040000003B
:1021A000000000000000000000000000000000002F
:1021B000000000000000000000000000000000001F
:1021C000000000000000000000000000000000000F
:1021D000000000000000000000000000AAAAAAAA57
:0421E00000000000FB
:0400000508000131BD
:00000001FF
