:020000040800F2
:100000008019002009020008A5020008A1020008CA
:10001000A30200089D02000805050008000000007A
:10002000000000000000000000000000490100087E
:100030009F02000800000000A5010008A9020008B6
:1000400027020008270200082702000827020008EC
:1000500027020008270200082702000827020008DC
:1000600027020008270200082702000827020008CC
:1000700027020008270200082702000827020008BC
:1000800027020008270200082702000827020008AC
:10009000270200082702000827020008270200089C
:1000A000270200083D030008270200082702000875
:1000B00061030008B5030008D903000827020008FF
:1000C000270200082702000827020008270200086C
:1000D000270200088D040008B5040008DD040008AC
:1000E000270200082702000827020008270200084C
:1000F00069040008270200082702000827020008F8
:100100002702000827020008FD0300082702000854
:1001100027020008270200082104000845040008FF
:10012000270200082702000827020008270200080B
:10013000DFF810D000F0A0F80048004721060008C2
:10014000AFF30080801900202C4B19680868B0E8D4
:10015000F04F80F30988BFF36F8F4FF0000080F3FA
:10016000118870470000000008480068006880F3AC
:1001700008884FF0000080F3148862B661B6BFF3C0
:100180004F8FBFF36F8F00DF00BF00BF08ED00E0AF
:10019000DFF80C00016841F470010160704700BF96
:1001A00088ED00E0EFF30980BFF36F8F134B1A68FF
:1001B0001EF0100F08BF20ED108A20E9F04F1060EC
:1001C00009B44FF0BF0080F31188BFF34F8FBFF326
:1001D0006F8F01F00BFC4FF0000080F3118809BC19
:1001E00019680868B0E8F04F1EF0100F08BFB0ECB7
:1001F000108A80F30988BFF36F8F704718000020C2
:10020000EFF3058070470000074880470748004724
:10021000FEE7FEE7FEE7FEE7FEE7FEE7FEE7FEE7B6
:10022000FEE7FEE7FEE7FEE7B9020008310100083D
:1002300040EA01039B0703D009E008C9121F08C068
:10024000042AFAD203E011F8013B00F8013B521EE8
:10025000F9D27047D2B201E000F8012B491EFBD25F
:1002600070470022F6E710B513460A4604461946C1
:10027000FFF7F0FF204610BD064C074D06E0E06892
:1002800040F0010394E8070098471034AC42F6D3DD
:10029000FFF752FF2C2300084C230008FEE77047AD
:1002A000FEE7FEE77047000002488168491C816054
:1002B00001F0E0BB0C00002082B01D48016841F451
:1002C000700101601B48016841F001010160016893
:1002D0008907FCD5416841F080014160002201920C
:1002E00002E00199491C019101995029F9D3416813
:1002F00041F090014160019202E00199491C019195
:1003000001995029F9D3416821F003014160016846
:10031000094B194001604FF41F018160016821F40D
:10032000802101604260C26202B000F05DBF000047
:1003300088ED00E000100240FFFFF6FE10B5074C0C
:100340000121204601F06DF8002805D02046BDE8C7
:100350001040012101F062B810BD0000002C0140E6
:1003600038B501218D07284601F05BF800281BD025
:10037000002000900D4C6946206801F00DFC694694
:10038000206801F009FC6946206801F005FC00982E
:1003900030B10749A8100860BFF34F8FBFF36F8FCC
:1003A0000121284601F03AF838BD0000080000207D
:1003B00004ED00E010B5074C0121204601F031F8B2
:1003C000002805D02046BDE81040012101F026B8E4
:1003D00010BD00000004004010B5074C012120466C
:1003E00001F01FF8002805D02046BDE8104001218B
:1003F00001F014B810BD00000008004010B5074C13
:100400000121204601F00DF8002805D02046BDE866
:100410001040012101F002B810BD0000000C0040A6
:1004200010B5074C0121204600F0FBFF002805D045
:100430002046BDE81040012100F0F0BF10BD0000D3
:100440000010004010B5074C0121204600F0E9FFE4
:10045000002805D02046BDE81040012100F0DEBF95
:1004600010BD00000014004010B5074C01212046CB
:1004700000F0D7FF002805D02046BDE8104001213C
:1004800000F0CCBF10BD00000034014070B5074C37
:10049000074D2146284601F0F6F8002805D02146F0
:1004A0002846BDE8704001F0E5B870BD05030500C1
:1004B0000038014070B5074C074D2146284601F031
:1004C000E2F8002805D021462846BDE8704001F03A
:1004D000D1B870BD050305000044004070B5074C5D
:1004E000074D2146284601F0CEF8002805D02146C8
:1004F0002846BDE8704001F0BDB870BD0503050099
:1005000000480040FEE70000014A024900F013B82D
:10051000590500088C00002002E008C8121F08C11D
:10052000002AFAD170477047002001E001C1121F74
:10053000002AFBD170472DE9F04116460F460446CC
:10054000002503E03946B047641C6D1C2078002864
:10055000F8D12846BDE8F08170B50446064D072164
:10056000284600F0F2FF0028F9D0E1B2284600F05A
:100570009BFF204670BD0000003801402DE9F0438C
:1005800001F00F04CD0602D5042A18D0144300222E
:100590004FF00F0C012707FA02F51D401AD0D0F8D2
:1005A000009096000CFA06F829EA080904FA06F801
:1005B00048EA0908282908D0482908D008E044F06A
:1005C0000304C26B1A43C263E1E7456100E00561C1
:1005D000C0F80080521C92B2082ADCD3082207FA25
:1005E00002F51D4016D0D0F80490A2F10806B6001E
:1005F0000CFA06F829EA080904FA06F848EA090894
:10060000282902D0482902D002E0456100E00561B6
:10061000C0F80480521C92B2102AE0D3BDE8F083E7
:100620001CB501231A464FF4E131002000F0AEFF63
:1006300001252B464EF65F2240F2CF7128460095E9
:1006400000F048F800210A2001F02AFA0C4CA060C2
:1006500010B90CA0FFF758FF09480023001DCDE991
:100660000050802210A1134801F000FC20600128F6
:1006700002D011A0FFF748FF01F084F9FEE7000067
:10068000000000207853656D6170686F7265437279
:1006900065617465436F756E74696E672066616924
:1006A0006C65640D0A00000073746172745F74619C
:1006B000736B0000F110000873746172745F7461F1
:1006C000736B20637265617465206661696C656433
:1006D0000D0A00002DE9FF4704460C9F884691460D
:1006E0001E46174830F8140000F0D8FC144D1035A1
:1006F00055F8240000F07AFDADF80080CDF80890A0
:100700000020ADF80200ADF80400ADF806008DF849
:100710000C0055F82400694600F032FEA5F11800DF
:100720003A46005D314600F00DF855F824000121ED
:1007300000F070FE55F8240000F01CFEBDE8FF87B5
:10074000FC22000870B505460E460023002423480D
:100750000168C1F30221072932D00168C1F30221E7
:1007600006292FD00168C1F3022105292DD0016887
:10077000C1F3022104292BD00068C0F30220032812
:1007800029D04FF4A06000F02BF802230224C3F11B
:1007900004008640C4F104010F20C84010403043DB
:1007A000000105F1E02181F8000405F01F0101209E
:1007B00088406909890001F1E021C1F8000170BD9C
:1007C0000424E4E701230324E1E702230224DEE713
:1007D00003230124DBE70423D9E700000CED00E04C
:1007E0000249084302490860704700000000FA050A
:1007F0000CED00E02DE9F04104460F461E4DEE6879
:100800002868001D00F084FF38B9286890F82C1083
:1008100001208840296981432961601C15D1A7B155
:10082000164948682A68906082682B68DA602A68EE
:100830008368121D5A602A68121D8260286841610F
:100840000868401C0860BDE8F081344428684460B2
:10085000B44206D22968E86B091DBDE8F04100F0FA
:100860007FBF2968A86B091D00F07AFFA86A84423F
:10087000E9D2AC62E7E70000180000204401002044
:1008800070B5044600F084FF244DA868401CA860A1
:10089000286810B1686938B10CE02C60A86801289C
:1008A00008D100F035F905E02868E16AC06A88429D
:1008B00000D82C60686A401C6862E06A01212A69DD
:1008C000814011432961164A00EB800002EB800051
:1008D0004068A0608168E1608368211D5960816083
:1008E000E06A00EB800002EB8001616152F82010A9
:1008F000491C42F8201000F059FF686900280CD00C
:100900002868E16AC06A884207D206494FF08050E1
:100910000860BFF34F8FBFF36F8F70BD18000020CA
:100920009000002004ED00E010B500F031FF0C4C09
:10093000206880B90B4800F005FF0A48143000F029
:1009400001FF0848E0601430206100220C210520DE
:1009500001F0B7F82060BDE8104000F027BF0000AC
:10096000580000205801002070B50C4D0C4E11E0CD
:1009700000F00EFFF068C468201D00F0C9FEA868F2
:10098000401EA8606868401E686000F00FFF2046A7
:1009900000F01CF868680028EAD170BD180000203B
:1009A0003001002030B40B46026C002A0CD0C16824
:1009B0001144C1608468A14201D30168C160C1686B
:1009C00030BC1846FFF734BC30BC704710B5044645
:1009D000206B00F0F7FE2046BDE8104000F0F2BEAC
:1009E000416A002904D0006B0068C0F1050070471F
:1009F000002070470749CA681168002904D0002107
:100A0000016019B1002070470121F9E7D068006842
:100A100070470000580000204FF4A0510E484207D4
:100A200006D0C01D20F007000B49411AC1F5A051A6
:100A30000A4B186000225A600144083921F007016E
:100A4000143B19604A600A600A1A426001604068FB
:100A500098605860704700008001002080000020EE
:100A6000074E4FF08054074DFFF77EFF3068012896
:100A7000FAD92C60BFF34F8FBFF36F8FF4E70000FC
:100A80009000002004ED00E003460098002905D006
:100A90000260C3630164012101F034B80060F8E72B
:100AA0002DE9F0478146DDE908560A9C9846521E1A
:100AB000206B00EB820020F0070700290CD00020FB
:100AC00023180A5C83F834200A5C12B1401C1028F9
:100AD000F6D3002084F84300052D00D30425E562F9
:100AE0006564201D00F039FE04F1180000F035FEA9
:100AF0002461C5F10500A06164624246494638465A
:100B000000F03CFA2060002E00D03460BDE8F08791
:100B100070B50024124D04EB840005EB800000F05A
:100B200011FE641C052CF6D30D48643000F00AFE5B
:100B30000B48783000F006FE09488C3000F002FEC9
:100B40000748A03000F0FEFD0548B43000F0FAFD83
:100B500003490448643181631431C16370BD0000EE
:100B6000900000201800002030B5134900E0114625
:100B70000A688242FBD34B685C18844203D1406808
:100B80001844486008460D6844682318AB420DD1EC
:100B9000094B143B1B689A4206D0526822444260BB
:100BA0000A681268026002E0036000E002608142AD
:100BB00000D0086030BD00008000002070B5002427
:100BC000416000610C4D91420AD8D11A826991426C
:100BD00001D301240EE0011D286900F0C1FD09E0E8
:100BE0009A4203D2994201D3012403E0011DE8682F
:100BF00000F0B6FD204670BD5800002010B5044638
:100C000000F0C6FDA06B20B1002400F0CFFD20460F
:100C100010BD0124F9E7000070B505460E460D48E9
:100C2000C068C068C468201D00F072FD94F82400FC
:100C3000410705D532462946204600F0ABF803E0CF
:100C400000F0FE0084F824002046216ABDE87040D0
:100C500008470000580000207FB5324E5AE0019846
:100C6000002857DB039C606910B1201D00F050FD87
:100C7000684600F0B3F8054601980A284AD2DFE832
:100C800000F0490505282E3D0505282E94F824007E
:100C900040F0010084F824000298A1690346014451
:100CA0002A462046FFF78AFF38B394F8240041070C
:100CB00007D50298A1692A460144204600F06AF847
:100CC00003E000F0FE0084F82400216A20468847F3
:100CD00020E014F8240F00F0FE0020701AE094F8D1
:100CE000240040F0010084F824000298A06141191A
:100CF0002B462A462046FFF761FF0BE094F82400BC
:100D0000810703D4204600F05DFD03E000F0FE0003
:100D100084F82400002201A9306800F071FF002847
:100D20009DD17FBD58000020F8B506460D4600F065
:100D300055FE684600F052F80446009810B101F0E4
:100D40001BFAF8BD45B9A64206D801F015FA2146AE
:100D50003046FFF761FFF8BD0C481DB10169096815
:100D600091B10025311B2A46006800F059FD01F0C1
:100D700003FA0028EFD106494FF080500860BFF316
:100D80004F8FBFF36F8FF8BD0125EBE758000020B0
:100D900004ED00E070B505460C46164604E0A8696F
:100DA0000444296A28468847A8692346011932461F
:100DB0002846FFF703FF0028F1D170BD0648816B7C
:100DC0000968002904D0816BC9680968816270478D
:100DD0004FF0FF31816270471800002070B5054662
:100DE00001F078F80446074EB068844204D200F05F
:100DF0000BF80120286001E000202860B460204644
:100E000070BD00005800002070B5094C4FF0FF3550
:100E100004E0C06800682946FFF7FEFEE06802684B
:100E2000002AF6D1E0682169E160206170BD000010
:100E300058000020BF2080F31188BFF34F8FBFF30D
:100E40006F8FFEE708B56846FFF7D4FD0099FFF7FE
:100E50006BFFFFF701FFF6E72DE9F041044600F0D4
:100E600097FC94F9455004F1240609E0606A48B102
:100E7000304601F01DF908B100F0FEFC6D1E6DB2A8
:100E8000002DF3DC4FF0FF3684F8456000F08EFC57
:100E900000F07EFC94F9445004F1100709E0206949
:100EA00048B1384601F004F908B100F0E5FC6D1EC8
:100EB0006DB2002DF3DC84F84460BDE8F04100F031
:100EC00075BC00002DE9F0410546002600F086FDC6
:100ED000234F386808B9FFF79FFD4DB105F00700B3
:100EE000C0F11000C1438D4201D8054400E0002547
:100EF000002D2FDD786885422CD819491431084619
:100F0000046801E0214604466068A84202D22068D5
:100F10000028F7D1386884421CD00E680836206853
:100F200008606068411B102904D960194160656040
:100F3000FFF71AFE61687868401A7860BA689042D4
:100F400000D2B86041F00040606000202060F86886
:100F5000401CF86001F010F93046BDE8F081000057
:100F60006C00002004490868002803D00868826CDF
:100F7000521C8264086870471800002024384FF023
:100F80008073036221F00101C16104498161426003
:100F90006FF0020140F8201970470000350E00087C
:100FA00070B588B00346002035A104AE91E8340046
:100FB000C96834C6079133A106C9CDE9021231A12F
:100FC00006C9CDE90012324C6168C1F38101314A92
:100FD000002930D001292ED002292CD1616801F4DA
:100FE0008031B1F5803F11D052106168C1F3834167
:100FF00065682D0101D541F0100165686D0001D5CE
:1010000041F020010F290ED2891C13E0E16A01F0A2
:10101000804101B1204A616801F40031B1F5003F1F
:10102000E3D15208E1E7A1F10F052F2D01D8491CAA
:1010300000E03F214A436168C1F3031104AD695CDC
:1010400022FA01F16568C5F3022502AE755D21FA49
:1010500005F56468C4F3C2241DF8044021FA04F4C1
:1010600043B1012B08D0022B08D0032B00D120461E
:1010700008B070BD1046FBE70846F9E72846F7E7D9
:101080000000000000000000010203040607080938
:101090000010024000127A00006CDC02054901EBEE
:1010A00090110A6800F01F030120984002430A6073
:1010B0007047000000100240054901EB90110A68DA
:1010C00000F01F030120984082430A60704700002F
:1010D00000100240054901EB90110A6800F01F035F
:1010E0000120984002430A6070470000001002404F
:1010F000064C4FF0FF352946A06800F0F9FD0128A5
:10110000F9D103A0FFF700FAF5E700000000002086
:101110007853656D6170686F726554616B6520739B
:101120007563636573730D0A0000000000212A488F
:10113000026842F4803202604FF6FF73491C026875
:1011400002F400320AB99942F8D10168890300D447
:10115000FEE7C16941F08051C16120490A6842F44B
:1011600040420A604268426042684260426842F41B
:1011700080624260426822F440324260426842F437
:10118000403242604268164B1A4042604268154B3A
:101190001A434260026842F0807202600268920163
:1011A000FCD50A6842F480320A604A68D203FCD552
:1011B0000A6842F400320A604A689203FCD541682A
:1011C00021F003014160416841F002014160416842
:1011D0000907FCD570470000001002400070004075
:1011E000FFFFC3B700003408FFF7A0BF10B55E4A89
:1011F000811A141590427DD029DC5C4AA0EB0201D3
:10120000904266D011DCB0F1804F50D05849401860
:1012100055D0A0426FD140F202442046FFF75AFF5A
:101220002046BDE81040FFF747BFA1425BD0B1F5B3
:10123000006F65D0B1F5406F5DD140F206442046A5
:10124000FFF748FF2046BDE81040FFF735BFB1F576
:10125000983F5FD011DCA1427AD0B1F5883F1CD015
:10126000B1F58C3F7ED140F20D342046FFF732FFBE
:101270002046BDE81040FFF71FBFB1F59A3F53D09D
:10128000B1F59C3F6ED140F215342046FFF722FFA6
:101290002046BDE81040FFF70FBF40F20B34204658
:1012A000FFF718FF2046BDE81040FFF705BF2046B6
:1012B000FFF710FF2046BDE81040FFF7FDBE40F2EB
:1012C00001442046FFF706FF2046BDE81040FFF727
:1012D000F3BE40F203442046FFF7FCFE2046BDE883
:1012E0001040FFF7E9BE40F204442046FFF7F2FE4B
:1012F000204601E022E035E0BDE81040FFF7DCBE0B
:1013000040F205442046FFF7E5FE2046BDE81040C8
:10131000FFF7D2BE40F213342046FFF7DBFE204633
:10132000BDE81040FFF7C8BE4FF445742046FFF7F4
:10133000D1FE2046BDE81040FFF7BEBE40F2074494
:101340002046FFF7C7FE2046BDE81040FFF7B4BEB9
:101350004FF481642046FFF7BDFE2046BDE81040F3
:10136000FFF7AABE10BD0000001C0040000C0040AA
:1013700000FCFFBF016841F00101016070470000FF
:1013800030B50A8882621C4B1C4A98420DD0B0F1DD
:10139000804F0AD01A4CA04207D01A4CA04204D069
:1013A000194CA04201D090420BD1046824F0700483
:1013B000046004684D882C43046004688D882C43C5
:1013C00004608C68C462114CA0420AD0104CA04248
:1013D00007D0046824F4407404600468CD882C436A
:1013E0000460984201D0904201D1097B01634169B8
:1013F00041F00101416130BD002C01400034014049
:101400000004004000080040000C004000100040B4
:1014100000140040C2680A43C2607047C9430161BA
:101420007047C2680A400069084202D00AB1012030
:10143000704700207047000070B504460D4600203C
:10144000174BE21A1E159C4216D008DC154962188B
:101450000ED0B24217D10220FFF7A2FD13E0B24234
:101460000ED0B2F56C4F0ED10320FFF799FD0AE0C4
:101470000220FFF795FD06E00220FFF791FD02E054
:101480000220FFF78DFD00EB5500B0FBF5F04FF6A5
:10149000F071014000F00F021143A16070BD000027
:1014A000004C004000BCFFBFC1F308014160704721
:1014B00010B5214A811A1315904228D00EDC1F491D
:1014C00040181AD0984236D140F212442046FFF715
:1014D00001FE2046BDE81040FFF7EEBD994220D046
:1014E000B1F56C4F27D140F20E342046FFF7F2FDE4
:1014F0002046BDE81040FFF7DFBD40F21144204612
:10150000FFF7E8FD2046BDE81040FFF7D5BD40F2EB
:1015100013442046FFF7DEFD2046BDE81040FFF7EC
:10152000CBBD40F214442046FFF7D4FD2046BDE871
:101530001040FFF7C1BD10BD004C004000BCFFBF14
:10154000C16841F40051C160704700EB9110006820
:1015500001F01F0201219140084201D00120704793
:1015600000207047426922F400724261426901F42E
:1015700000710A4342617047426922F480724261FD
:10158000426901F480710A43426170472DE9F047D6
:101590000446884616461F46304830F81400FFF7C8
:1015A0007DFD2E48001D30F81400FFF777FDDFF8B1
:1015B000AC90032209F11A09A9F1080559F8343051
:1015C00055F824001821FEF7D9FF09EBC4000322C7
:1015D000436855F824000421FEF7D0FF083D55F874
:1015E0002400FFF765FF55F824004146FFF724FF6C
:1015F00055F82400002100F083F855F8240000215C
:1016000000F06CF855F82400002100F055F855F86A
:1016100024000021FFF7B0FF55F824000021FFF758
:10162000A1FF55F82400042100F04EF855F82400DD
:10163000082100F05BF855F82400FFF781FFA5F1C1
:101640000C003A46005D3146FFF77CF855F824005F
:10165000BDE8F04740F2053100F002B8CA220008A8
:1016600000EB9110026801F01F03012199400A4329
:1016700002607047C1F3044301229A4000EB91508D
:10168000D2430260704730B5C1F38912825801F02D
:101690001F04012505FA04F31A4000EB915000687D
:1016A000C1F3044105FA01F31840002802D00AB141
:1016B000012030BD002030BDC26822F4C062C2608B
:1016C000C2680A43C2607047C26822F00402C26066
:1016D000C26801F004010A43C2607047026922F443
:1016E0004052026102690A4302617047C26822F0F7
:1016F0000802C260C26801F008010A43C260704774
:10170000C26822F48052C260C2680A43C260704755
:101710000169D0E901329A60D0E901235A604A6830
:10172000824201D182684A60002202610868401E3C
:101730000860086870470000014880687047000032
:101740001800002000F1080141604FF0FF32826074
:10175000C160016100210160704700210161704793
:1017600030B50C68621C02D000F1080202E0026988
:1017700004E01A4653681D68A542FAD953684B60C5
:1017800099608A60516008610168491C016030BD40
:10179000BF2080F31188BFF34F8FBFF36F8F0248D4
:1017A0000168491C016070478800002004490868EE
:1017B000401E0860002801D180F3118870470000A6
:1017C0008800002070B500281BD0083804466068E7
:1017D000002816DA2168002913D120F0004060604B
:1017E00000F0FCF8074D60686968084468602046AE
:1017F000FFF7BAF92869401C2861BDE8704000F085
:10180000BBBC70BD6C0000204FF0E02000210161E6
:10181000816102494161072101617047BFD4010024
:1018200070B504460D461646FFF7B2FF94F94430F2
:101830004FF000005B1C01D184F8440094F945107E
:10184000491C01D184F84500FFF7B0FFA06B28B90F
:101850003246294604F1240000F024F82046BDE871
:101860007040FFF7F9BA000002490A6A0260C968CD
:10187000416070471800002001490120C86170478D
:101880001800002010B50C46054909681831FFF70B
:1018900067FF2046BDE810400121FEF7ABBF000006
:1018A00018000020F0B403460C4658680D490D6836
:1018B000E86185680E6835620D6886681835756060
:1018C0000D6818358560086883621868401C1860C8
:1018D000002A01D04FF0FF342046F0BC1146FEF73D
:1018E00089BF00001800002070B50446002844D0CD
:1018F000606C884200D30146E06A88423DD0A26C09
:10190000012A3AD1E162A269002A02DBC1F1050194
:10191000A1611A4D00EB8000616905EB80008142F6
:101920002BD1201DFFF7F4FE1549012230B994F8A0
:101930002C000B6902FA00F083430B61E06A0B692B
:1019400082401A430A6100EB800005EB800040688A
:10195000A0608168E1608268211D51608160E06A59
:1019600000EB800005EB80006061E06A00EB800026
:1019700055F82010491C45F8201070BD900000203B
:10198000180000207CB511480025CDE900502B46F9
:1019900080220FA1104800F069FA012801D100F05F
:1019A00075FC0A4C2C3C01280ED1BF2080F3118815
:1019B000BFF34F8FBFF36F8F4FF0FF30A062012056
:1019C0006061E56000F036F8206B7CBD44000020CB
:1019D00049444C4500000000610A00080248416B80
:1019E000491C416370470000180000200F4A506BEB
:1019F000002802D00120D06170470020D06110691A
:101A0000B0FA80F0C0F11F00094900EB800001EB43
:101A1000800041684968416000F10803994201D1A2
:101A2000496841604068C068106070471800002035
:101A30009000002010B50C48016841F47F0101605E
:101A4000016841F07F410160FFF7DEFE0749002099
:101A50000860FEF79DFB0648016841F040410160C7
:101A6000FEF782FB002010BD20ED00E08800002082
:101A700034EF00E010B5BF2080F31188BFF34F8F23
:101A8000BFF36F8F00F02CFA18B104494FF080506B
:101A90000860002080F3118810BD000004ED00E014
:101AA00010B503460C460020002B09D09C4207D8F5
:101AB00002220021184600F004F8002800D08463B8
:101AC00010BDF8B505460E4617460024002D16D069
:101AD000601EB0FBF5F0B04211D305FB06F010F12B
:101AE000490F0CD84830FFF7EDF904463CB12246C7
:101AF00048323B46314628460094FEF7C5FF204653
:101B0000F8BD00002DE9F04104460F460125002CE8
:101B10003BD0E26BC2B3AE1EB6FBF2F1206C814249
:101B200033D3FFF735FED4E90F20216802FB001103
:101B3000A1600021A16321686160E06B2268216CD3
:101B4000401E00FB0121E16084F8446084F8456098
:101B500004F1100047B1FFF7F5FD04F12400FFF791
:101B6000F1FDFFF723FE11E021690029F9D000F013
:101B70009FFA0028F5D007494FF080500860BFF366
:101B80004F8FBFF36F8FECE7FFE700252846BDE8D6
:101B9000F081000004ED00E02DE9F04104460F461D
:101BA000BF20EFF3118680F31188BFF34F8FBFF38F
:101BB0006F8FA26BE06B90421CD994F94550521C78
:101BC000A263681C08D0FFF7B7FD854202D26D1CE6
:101BD00084F8455001200EE0606A0028FAD004F134
:101BE000240000F065FA0028F4D0002FF2D0012084
:101BF0003860EFE7002086F31188BDE8F08100002F
:101C00002DE9F74783B004468A46002600274FF0A7
:101C10008058DFF8D890FFF7BBFDA56BC5B15146E2
:101C20002046FEF7BFFE6D1EA563206950B104F18A
:101C3000100000F03DFA28B1C9F80080BFF34F8FC3
:101C4000BFF36F8FFFF7B2FD012006B0BDE8F0874C
:101C5000059808B126B107E0FFF7A8FD0020F4E7DA
:101C600001A8FFF701FE0126FFF7A0FDFFF7B6FE72
:101C7000FFF78EFD94F94400401C01D184F84470B4
:101C800094F94500401C01D184F84570FFF78EFDA2
:101C900005A901A800F0BEF858B12046FFF7DCF80E
:101CA00000F06AFA2046FEF7A9FF0028B3D0002012
:101CB000CBE72046FEF7A2FF90B104F1240005997E
:101CC000FFF7E0FD2046FFF7C7F800F055FA0028BF
:101CD000A1D1C9F80080BFF34F8FBFF36F8F9AE790
:101CE0002046FFF7B9F800F047FA94E704ED00E06A
:101CF0002DE9F34383B004460025A94600264FF0A2
:101D00008057DFF80C81FFF743FDA06BC8B1401E80
:101D1000A063206810B9FFF725F9A060206950B1D1
:101D200004F1100000F0C4F928B1C8F80070BFF346
:101D30004F8FBFF36F8FFFF739FD012005B0BDE86E
:101D4000F083049808B125B107E0FFF72FFD0020CC
:101D5000F4E701A8FFF788FD0125FFF727FDFFF74E
:101D60003DFEFFF715FD94F94400401C01D184F8B5
:101D7000446094F94500401C01D184F84560FFF7A8
:101D800015FD04A901A800F045F8C8B12046FFF7E9
:101D900063F800F0F1F92046FEF730FF0028B2D0DA
:101DA000B9F1000F0AD0FFF7F3FC2046FEF718FE4A
:101DB0000146A068FFF798FDFFF7F8FC0020BDE79B
:101DC0002046FEF71BFFE0B1206838B9FFF7E0FCC2
:101DD000A06800F013F98146FFF7E8FC04F1240045
:101DE0000499FFF74FFD2046FFF736F800F0C4F9DD
:101DF000002888D1C8F80070BFF34F8FBFF36F8FF2
:101E000081E72046FFF728F800F0B6F97BE70000ED
:101E100004ED00E02DE9F04106460D46FFF7B8FC61
:101E20001148C36874681A1B29684F1C0AD03768A8
:101E3000D0F820C00020674506D09C4204D8012479
:101E400028600CE000240AE0914206D9881A286034
:101E50003046FFF709FD002401E028600124FFF768
:101E6000A5FC2046BDE8F081180000202DE9FF5FA9
:101E70008146DDE90E788A4616469B46B000FFF79C
:101E800021F8054628000ED05420FFF71BF8044621
:101E90002CB154212046FEF7E4F9256304E02846DE
:101EA000FFF790FC00E000248CB10020CDE9024057
:101EB000CDE900785B46324651464846FEF7F0FDD4
:101EC0002046FEF7DDFC012004B0BDE8F09F4FF096
:101ED000FF30F9E70148C068704700001800002093
:101EE0002DE9F0410025434E706B002805D0B06904
:101EF000401CB0612846BDE8F081F468641CF460C1
:101F000044B9B06BF16BB163F063306A401C30626E
:101F1000FEF754FFB06A384F84420FD34FF0000CE5
:101F2000B06B006838B1B06BC068C1684868844263
:101F300012D2B06202E04FF0FF30B0623068C06A87
:101F400000EB800057F82000012800D90125F06936
:101F50000028CFD00125CDE74A69D1E90230986049
:101F6000D1E90203586050680B1D984201D1C8683E
:101F70005060C1F814C01068401E10608A6A9AB19F
:101F8000D1E90780C8F80800D1E90708C8F80400BB
:101F9000506801F11808404501D1086A5060C1F845
:101FA00028C01068401E1060C86A0122D6F8108050
:101FB000824042EA0802326100EB800007EB8000B9
:101FC00042688A609068C860906843609360C86A9D
:101FD00000EB800007EB80024A6157F82020521C7A
:101FE00047F82020C86A3168C96A884298D9012513
:101FF00096E70000180000209000002070B504460D
:102000000020002C48D0284DE16A2A68D26A91420B
:1020100043D2A069002804DB2868C06AC0F105002B
:10202000A061E06A214E00EB8000616906EB800050
:1020300081422DD1201DFFF76BFB012130B994F8AF
:102040002C002A6901FA00F082432A612868C06ADC
:10205000E0622A6981401143296100EB800006EBB0
:1020600080004068A0608168E1608268211D516045
:102070008160E06A00EB800006EB80006061E06A4E
:1020800000EB800056F82010491C46F8201002E0B2
:102090002868C06AE062012070BD616C2A68D26A5B
:1020A0009142F9D2012070BD18000020900000205C
:1020B00070B5C068C068816AD0E907329A60D0E91B
:1020C00007235A604B6800F11802934201D1036A5A
:1020D0004B60002585620B685B1E0B60244B596BBF
:1020E000012499B1234D6968C1618E6806628E68CA
:1020F00072608A6085622968491C2960C06A196813
:10210000C96A884232D90120DC6170BD4169D0E9D9
:102110000262B260D0E9022672604E68021D9642E9
:1021200001D1C6684E6045610D686D1E0D60C16AC3
:102130001E6904FA01F535431D610E4D01EB810165
:102140008C3D05EB8101496881608E68C6608E68B0
:1021500072608A60C16A01EB810105EB8102426114
:1021600055F82120521C45F82120C7E7002070BDFA
:10217000180000201C0100202DE9F0410024A04699
:10218000FFF706FB3E4D686B401E6863686B0028D6
:1021900071D1A86800286ED000273A4A01264EE087
:1021A000D068C468A16AD4E907309860D4E907030D
:1021B00058604B6804F11800834201D1206A4860DE
:1021C000A7620868401E08606169D4E9023098601F
:1021D000D4E9020358604B68201D834201D1E368B3
:1021E0004B6067610B685B1E0B60E16AD5F810C03D
:1021F00006FA01F343EA0C032B61224B01EB810148
:102200008C3B03EB81014968A160D1F808C0C4F898
:102210000CC0D1F808C0CCF804008860E06A00EB7C
:10222000800003EB8001616153F82010491C43F8E2
:102230002010E06A2968C96A884200D3EE611068FC
:102240000028ADD10CB1FEF7B9FDAC693CB1FFF788
:1022500047FE00B1EE61641E002CF8D1AF61E86961
:1022600048B14FF0010808494FF080500860BFF3B3
:102270004F8FBFF36F8FFFF799FA4046BDE8F081AB
:10228000180000201C01002004ED00E01CB5002413
:10229000FEF74AFB0848006858B107480421001DB2
:1022A000CDE900108A01002304A10648FFF7DEFDF6
:1022B000044620461CBD000058000020546D7220CA
:1022C00053766300450E00082526020602060E0618
:1022D00011070000003801400044004000080140A0
:1022E000000801400002000000040000040000009B
:1022F00008000000191C1D1E3236372C0B06000783
:10230000010702070307040705070D06002C01401B
:10231000000000400004004000080040000C0040A5
:102320000010004000140040003401404C2300081D
:10233000000000209000000018050008DC230008C1
:1023400090000020F01800002805000800000000A0
:10235000000000000000000000000000000000007D
:10236000000000000000000000000000000000006D
:10237000000000000000000000000000000000005D
:10238000000000000000000000000000000000004D
:102390000000000004000000000000000000000039
:1023A000000000000000000000000000000000002D
:1023B000000000000000000000000000000000001D
:1023C000000000000000000000000000000000000D
:0C23D00000000000AAAAAAAA0000000059
:0400000508000131BD
:00000001FF
