:020000040800F2
:100000009019002009020008A5020008A1020008BA
:10001000A30200089D020008D104000800000000AF
:10002000000000000000000000000000490100087E
:100030009F02000800000000A5010008A9020008B6
:1000400027020008270200082702000827020008EC
:1000500027020008270200082702000827020008DC
:1000600027020008270200082702000827020008CC
:1000700027020008270200082702000827020008BC
:1000800027020008270200082702000827020008AC
:10009000270200082702000827020008270200089C
:1000A000270200083D030008270200082702000875
:1000B0006103000881030008A50300082702000867
:1000C000270200082702000827020008270200086C
:1000D000270200085904000881040008A904000848
:1000E000270200082702000827020008270200084C
:1000F000350400082702000827020008270200082C
:100100002702000827020008C90300082702000888
:100110002702000827020008ED0300081104000868
:10012000270200082702000827020008270200080B
:10013000DFF810D000F0A0F800480047D50700080D
:10014000AFF30080901900202C4B19680868B0E8C4
:10015000F04F80F30988BFF36F8F4FF0000080F3FA
:10016000118870470000000008480068006880F3AC
:1001700008884FF0000080F3148862B661B6BFF3C0
:100180004F8FBFF36F8F00DF00BF00BF08ED00E0AF
:10019000DFF80C00016841F470010160704700BF96
:1001A00088ED00E0EFF30980BFF36F8F134B1A68FF
:1001B0001EF0100F08BF20ED108A20E9F04F1060EC
:1001C00009B44FF0BF0080F31188BFF34F8FBFF326
:1001D0006F8F01F035FC4FF0000080F3118809BCEF
:1001E00019680868B0E8F04F1EF0100F08BFB0ECB7
:1001F000108A80F30988BFF36F8F704724000020B6
:10020000EFF3058070470000074880470748004724
:10021000FEE7FEE7FEE7FEE7FEE7FEE7FEE7FEE7B6
:10022000FEE7FEE7FEE7FEE7B9020008310100083D
:1002300040EA01039B0703D009E008C9121F08C068
:10024000042AFAD203E011F8013B00F8013B521EE8
:10025000F9D27047D2B201E000F8012B491EFBD25F
:1002600070470022F6E710B513460A4604461946C1
:10027000FFF7F0FF204610BD064C074D06E0E06892
:1002800040F0010394E8070098471034AC42F6D3DD
:10029000FFF752FFE022000800230008FEE7704746
:1002A000FEE7FEE77047000002488168491C816054
:1002B00001F00ABC1800002082B01D48016841F41A
:1002C000700101601B48016841F001010160016893
:1002D0008907FCD5416841F080014160002201920C
:1002E00002E00199491C019101995029F9D3416813
:1002F00041F090014160019202E00199491C019195
:1003000001995029F9D3416821F003014160016846
:10031000094B194001604FF41F018160016821F40D
:10032000802101604260C26202B001F07FB800002B
:1003300088ED00E000100240FFFFF6FE10B5074C0C
:100340000121204601F077F8002805D02046BDE8BD
:100350001040012101F06CB810BD0000002C0140DC
:1003600010B501218C07204601F065F8002805D062
:100370002046BDE81040012101F05AB810BD000030
:1003800010B5074C0121204601F055F8002805D092
:100390002046BDE81040012101F04AB810BD000020
:1003A0000004004010B5074C0121204601F043F83D
:1003B000002805D02046BDE81040012101F038B8E2
:1003C00010BD00000008004010B5074C0121204678
:1003D00001F031F8002805D02046BDE81040012189
:1003E00001F026B810BD0000000C004010B5074C0D
:1003F0000121204601F01FF8002805D02046BDE865
:100400001040012101F014B810BD000000100040A0
:1004100010B5074C0121204601F00DF8002805D049
:100420002046BDE81040012101F002B810BD0000D7
:100430000014004010B5074C0121204600F0FBFFDE
:10044000002805D02046BDE81040012100F0F0BF93
:1004500010BD00000034014070B5074C074D214627
:10046000284601F01AF9002805D021462846BDE8A3
:10047000704001F009B970BD050305000038014066
:1004800070B5074C074D2146284601F006F90028B3
:1004900005D021462846BDE8704001F0F5B870BD92
:1004A000050305000044004070B5074C074D214688
:1004B000284601F0F2F8002805D021462846BDE87C
:1004C000704001F0E1B870BD050305000048004030
:1004D000FEE700000FB4054B10B503A9044A0298CB
:1004E00000F02BF810BC5DF814FB00001D0600089E
:1004F000980000200FB4084B10B504A902AA039875
:1005000000F01BF8044602A9002000F081F8204604
:1005100010BC5DF814FB00001106000802E008C8DA
:10052000121F08C1002AFAD170477047002001E06D
:1005300001C1121F002AFBD170472DE9F84F9946DF
:10054000924688460546002706E025280AD05146EF
:100550004A4690476D1C7F1C28780028F5D1384604
:10056000BDE8F88F002315F8011F18462E2915D174
:1005700015F8011F04232A290DD06FF02F022978C6
:10058000A1F13004092C09D800EB800002EB4000F7
:1005900008446D1CF3E758F8040B6D1C2A78002AF8
:1005A000DDD0632A07D0732A0FD0104651464A4641
:1005B00090477F1C2AE018F8042B8DF800200021BA
:1005C0008DF801106E46012103E058F8046B4FF0DE
:1005D000FF315A074FF0000401D409E0641C844243
:1005E0000BDA8C42FADB325D002AF7D105E0641C9D
:1005F0008C42FCDB305D0028F9D1274404E016F87A
:10060000010B51464A469047641EF8D26D1CA3E781
:100610000A68531C0B6010707047000070B50446E8
:10062000064D0721284600F09AFF0028F9D0E1B2D4
:10063000284600F043FF204670BD0000003801400E
:1006400041617047016170472DE9F04301F00F04EB
:10065000CD0602D5042A18D0144300224FF00F0C07
:10066000012707FA02F51D401AD0D0F80090960035
:100670000CFA06F829EA080904FA06F848EA090813
:10068000282908D0482908D008E044F00304C26BA8
:100690001A43C263E1E7456100E00561C0F80080EC
:1006A000521C92B2082ADCD3082207FA02F51D4038
:1006B00016D0D0F80490A2F10806B6000CFA06F89D
:1006C00029EA080904FA06F848EA0908282902D0A4
:1006D000482902D002E0456100E00561C0F80480CD
:1006E000521C92B2102AE0D3BDE8F08308B5042072
:1006F00000F0D6FC009008A1FFF7FCFE074C072095
:1007000000F00EF800231A466946606901F05CFAB1
:10071000C82001F0B9F8F2E7616263000000002030
:100720000449044A203A51F8201052F82000FFF7FB
:1007300089BF00005C2200080449044A203A51F8AD
:10074000201052F82000FFF77BBF00005C22000859
:1007500070B504460C4830F8140000F081FD0A4DD5
:100760000322203DA5F1200655F8243056F8240038
:100770001021FFF769FF55F8241056F82400BDE852
:100780007040FFF75FBF00007C22000808B504201E
:1007900000F086FC009008A1FFF7ACFE074C072094
:1007A000FFF7CAFF00231A466946606901F00CFA98
:1007B000C82001F069F8F2E76566670000000020D4
:1007C00010B50024E0B2FFF7C3FF641C082CF9DB6E
:1007D00010BD00001CB5FFF7F3FF01231A464FF4CC
:1007E000E131002000F0DCFE0FA0FFF773FE0022D5
:1007F0000421052001F07EF91049486110B910A0CC
:10080000FFF768FE0D4801210830CDE900100023F4
:10081000802211A1134801F0F7FA10B912A0FFF7D6
:1008200059FE01F0D9F8FEE74672656552544F5300
:100830002053746172740D0A000000000000002053
:1008400051756575652043726561746520466169FF
:100850006C65640D0A00000073746172745F7461EA
:10086000736B0000B51200085461736B204372650E
:10087000617465204661696C65640D0A00000000C2
:1008800070B505460E460023002423480168C1F3D5
:100890000221072932D00168C1F3022106292FD095
:1008A0000168C1F3022105292DD00168C1F302219D
:1008B00004292BD00068C0F30220032829D04FF46C
:1008C000A06000F02BF802230224C3F1040086404C
:1008D000C4F104010F20C84010403043000105F16D
:1008E000E02181F8000405F01F010120884069091A
:1008F000890001F1E021C1F8000170BD0424E4E7A2
:1009000001230324E1E702230224DEE70323012479
:10091000DBE70423D9E700000CED00E002490843BF
:1009200002490860704700000000FA050CED00E085
:100930002DE9F04104460F461E4DEE682868001D63
:1009400000F0F0FE38B9286890F82C10012088409B
:10095000296981432961601C15D1A7B116494868EE
:100960002A68906082682B68DA602A688368121DA2
:100970005A602A68121D8260286841610868401C1C
:100980000860BDE8F081344428684460B44206D26F
:100990002968E86B091DBDE8F04100F0E4BE296854
:1009A000A86B091D00F0DFFEA86A8442E9D2AC62A0
:1009B000E7E70000240000205001002070B5044645
:1009C00000F0F6FE244DA868401CA860286810B10D
:1009D000686938B10CE02C60A868012808D100F0E3
:1009E00077F905E02868E16AC06A884200D82C607F
:1009F000686A401C6862E06A01212A6981401143EB
:100A00002961164A00EB800002EB80004068A0607C
:100A10008168E1608368211D59608160E06A00EBB4
:100A2000800002EB8001616152F82010491C42F8FD
:100A3000201000F0CBFE686900280CD02868E16A1D
:100A4000C06A884207D206494FF080500860BFF361
:100A50004F8FBFF36F8F70BD240000209C000020DB
:100A600004ED00E010B500F0A3FE0C4C206880B946
:100A70000B4800F06AFE0A48143000F066FE084891
:100A8000E0601430206100220C21052001F032F8D2
:100A90002060BDE8104000F099BE00006400002016
:100AA0006401002070B50C4D0C4E11E000F080FE8A
:100AB000F068C468201D00F035FEA868401EA860DC
:100AC0006868401E686000F081FE204600F053F820
:100AD00068680028EAD170BD240000203C01002095
:100AE00030B40B46026C002A0CD0C1681144C160BE
:100AF0008468A14201D30168C160C16830BC184656
:100B0000FFF796BB30BC70472DE9F041044617460D
:100B10000026A56B226C002A10D0C7B1E068FFF751
:100B200087FBE168206C091AE1602268914202D2D9
:100B3000A168081AE060022F16D017E02068A8B953
:100B4000A06801F029FA06460020A0600EE0606867
:100B5000FFF76EFB216C606808446060A168884202
:100B600004D32068606001E005B16D1E6D1CA563B3
:100B70003046BDE8F08110B50446206B00F032FE2F
:100B80002046BDE8104000F02DBE000008B5064C20
:100B90004FF0FF352A466946606901F091F803A0DD
:100BA0000099FFF797FCF5E70000002025730D0A78
:100BB000000000000749CA681168002904D000211C
:100BC000016019B1002070470121F9E7D068006881
:100BD00070470000640000204FF4A0510E48420707
:100BE00006D0C01D20F007000B49411AC1F5A051E5
:100BF0000A4B186000225A600144083921F00701AD
:100C0000143B19604A600A600A1A42600160406839
:100C100098605860704700008C0100208C00002014
:100C2000074E4FF08054074DFFF73CFF3068012816
:100C3000FAD92C60BFF34F8FBFF36F8FF4E700003A
:100C40009C00002004ED00E003460098002905D038
:100C50000260C3630164012100F06CBF0060F8E72B
:100C60002DE9F0478146DDE908560A9C9846521E58
:100C7000206B00EB820020F0070700290CD0002039
:100C800023180A5C83F834200A5C12B1401C102837
:100C9000F6D3002084F84300052D00D30425E56237
:100CA0006564201D00F05CFD04F1180000F058FDA3
:100CB0002461C5F10500A061646242464946384698
:100CC00000F03EFA2060002E00D03460BDE8F087CE
:100CD00070B50024124D04EB840005EB800000F099
:100CE00034FD641C052CF6D30D48643000F02DFD56
:100CF0000B48783000F029FD09488C3000F025FDC4
:100D00000748A03000F021FD0548B43000F01DFD7B
:100D100003490448643181631431C16370BD00002C
:100D20009C0000202400002030B5134900E011464B
:100D30000A688242FBD34B685C18844203D1406846
:100D40001844486008460D6844682318AB420DD12A
:100D5000094B143B1B689A4206D0526822444260F9
:100D60000A681268026002E0036000E002608142EB
:100D700000D0086030BD00008C00002070B5002459
:100D8000416000610C4D91420AD8D11A82699142AA
:100D900001D301240EE0011D286900F0E4FC09E004
:100DA0009A4203D2994201D3012403E0011DE8686D
:100DB00000F0D9FC204670BD6400002010B5044648
:100DC00000F0F6FCA06B20B1002400F0FFFC2046F0
:100DD00010BD0124F9E710B5044600F0E9FCA06B52
:100DE000E16B884201D1012400E0002400F0EEFC18
:100DF000204610BD70B505460E460D48C068C06857
:100E0000C468201D00F08EFC94F82400410705D52D
:100E100032462946204600F0ABF803E000F0FE0021
:100E200084F824002046216ABDE87040084700008D
:100E3000640000207FB5324E5AE00198002857DB4D
:100E4000039C606910B1201D00F06CFC684600F046
:100E5000B3F8054601980A284AD2DFE800F04905B0
:100E600005282E3D0505282E94F8240040F00100A9
:100E700084F824000298A169034601442A462046CA
:100E8000FFF77CFF38B394F82400410707D5029898
:100E9000A1692A460144204600F06AF803E000F008
:100EA000FE0084F82400216A2046884720E014F8D8
:100EB000240F00F0FE0020701AE094F8240040F0A7
:100EC000010084F824000298A06141192B462A46AB
:100ED0002046FFF753FF0BE094F82400810703D46A
:100EE000204600F07FFC03E000F0FE0084F82400C0
:100EF000002201A9306800F0E3FE00289DD17FBDEB
:100F000064000020F8B506460D4600F091FD6846E5
:100F100000F052F80446009810B101F0E7F8F8BD6F
:100F200045B9A64206D801F0E1F821463046FFF760
:100F300061FFF8BD0C481DB10169096891B1002538
:100F4000311B2A46006800F07BFC01F0CFF8002836
:100F5000EFD106494FF080500860BFF34F8FBFF3C9
:100F60006F8FF8BD0125EBE76400002004ED00E081
:100F700070B505460C46164604E0A8690444296A83
:100F800028468847A8692346011932462846FFF7B4
:100F9000F5FE0028F1D170BD0648816B0968002973
:100FA00004D0816BC9680968816270474FF0FF31D6
:100FB000816270472400002070B5054600F058FF9C
:100FC0000446074EB068844204D200F00BF80120BA
:100FD000286001E000202860B460204670BD000059
:100FE0006400002070B5094C4FF0FF3504E0C06884
:100FF00000682946FFF7FEFEE0680268002AF6D185
:10100000E0682169E160206170BD0000640000209B
:10101000BF2080F31188BFF34F8FBFF36F8FFEE7C0
:1010200008B56846FFF7C6FD0099FFF76BFFFFF7AD
:1010300001FFF6E72DE9F041044600F0B9FB94F911
:10104000455004F1240609E0606A48B1304600F0DA
:10105000E9FF08B100F088FC6D1E6DB2002DF3DCD5
:101060004FF0FF3684F8456000F0B0FB00F0A0FBC5
:1010700094F9445004F1100709E0206948B138465A
:1010800000F0D0FF08B100F06FFC6D1E6DB2002DB6
:10109000F3DC84F84460BDE8F04100F097BB000049
:1010A0002DE9F0410546002600F0C2FC234F3868C8
:1010B00008B9FFF791FD4DB105F00700C0F1100030
:1010C000C1438D4201D8054400E00025002D2FDDED
:1010D000786885422CD8194914310846046801E023
:1010E000214604466068A84202D220680028F7D151
:1010F000386884421CD00E68083620680860606832
:10110000411B102904D9601941606560FFF70CFE8E
:1011100061687868401A7860BA68904200D2B86016
:1011200041F00040606000202060F868401CF860DA
:1011300000F0DCFF3046BDE8F081000078000020C0
:1011400024384FF08073036221F00101C16104492A
:10115000816142606FF0020140F820197047000081
:101160001110000870B588B00346002035A104AE08
:1011700091E83400C96834C6079133A106C9CDE9A6
:10118000021231A106C9CDE90012324C6168C1F3E7
:101190008101314A002930D001292ED002292CD1D9
:1011A000616801F48031B1F5803F11D0521061685F
:1011B000C1F3834165682D0101D541F010016568D7
:1011C0006D0001D541F020010F290ED2891C13E0DA
:1011D000E16A01F0804101B1204A616801F4003107
:1011E000B1F5003FE3D15208E1E7A1F10F052F2D42
:1011F00001D8491C00E03F214A436168C1F3031153
:1012000004AD695C22FA01F16568C5F3022502AEFE
:10121000755D21FA05F56468C4F3C2241DF8044025
:1012200021FA04F443B1012B08D0022B08D0032B80
:1012300000D1204608B070BD1046FBE70846F9E72C
:101240002846F7E700000000000000000102030448
:10125000060708090010024000127A00006CDC0248
:10126000054901EB90110A6800F01F030120984026
:1012700002430A607047000000100240054901EB7C
:1012800090110A6800F01F030120984082430A6011
:101290007047000000100240054901EB90110A68F8
:1012A00000F01F030120984002430A6070470000CD
:1012B000001002401CB500F07BFA1A480221CDE96B
:1012C0000010A0F10C04802217A11A48236800F036
:1012D0009BFD10B918A0FFF7FDF812480121001D71
:1012E000CDE9001080221AA11C48636800F08CFD33
:1012F00010B911A0FFF7EEF800200321CDE900108E
:101300000346802216A1194800F07EFD10B90AA0FC
:10131000FFF7E0F800F05AFABDE81C40002000F0AA
:10132000CDBA00000C0000206C65645F7461736BC3
:10133000000000008D0700085461736B2043726544
:10134000617465204661696C65640D0A00000000E7
:101350006C6564325F7461736B000000ED06000819
:10136000476174656B656570657200008D0B0008E0
:1013700000212A48026842F4803202604FF6FF736F
:10138000491C026802F400320AB99942F8D1016896
:10139000890300D4FEE7C16941F08051C161204951
:1013A0000A6842F440420A60426842604268426011
:1013B000426842F480624260426822F440324260F5
:1013C000426842F4403242604268164B1A40426022
:1013D0004268154B1A434260026842F08072026014
:1013E00002689201FCD50A6842F480320A604A68B9
:1013F000D203FCD50A6842F400320A604A689203BC
:10140000FCD5416821F003014160416841F00201CF
:10141000416041680907FCD5704700000010024098
:1014200000700040FFFFC3B700003408FFF7A0BF03
:10143000C94301617047C2680A400069084202D08E
:101440000AB10120704700207047000070B50446C3
:101450000D460020174BE21A1E159C4216D008DCE0
:10146000154962180ED0B24217D10220FFF77AFE5A
:1014700013E0B2420ED0B2F56C4F0ED10320FFF74D
:1014800071FE0AE00220FFF76DFE06E00220FFF782
:1014900069FE02E00220FFF765FE00EB5500B0FB9D
:1014A000F5F04FF6F071014000F00F021143A1601A
:1014B00070BD0000004C004000BCFFBFC1F308013C
:1014C0004160704710B5214A811A1315904228D007
:1014D0000EDC1F4940181AD0984236D140F212440F
:1014E0002046FFF7D9FE2046BDE81040FFF7C6BEF4
:1014F000994220D0B1F56C4F27D140F20E342046EE
:10150000FFF7CAFE2046BDE81040FFF7B7BE40F225
:1015100011442046FFF7C0FE2046BDE81040FFF70B
:10152000ADBE40F213442046FFF7B6FE2046BDE8AC
:101530001040FFF7A3BE40F214442046FFF7ACFE74
:101540002046BDE81040FFF799BE10BD004C00409A
:1015500000BCFFBFC16841F40051C160704700EB9F
:101560009110006801F01F0201219140084201D052
:101570000120704700207047426922F400724261E6
:10158000426901F400710A4342617047426922F4E2
:1015900080724261426901F480710A43426170477E
:1015A0002DE9F0470446884616461F46304830F875
:1015B0001400FFF755FE2E48001D30F81400FFF709
:1015C0004FFEDFF8AC90032209F11A09A9F10805D2
:1015D00059F8343055F824001821FFF735F809EB95
:1015E000C4000322436855F824000421FFF72CF8B7
:1015F000083D55F82400FFF765FF55F824004146E3
:10160000FFF724FF55F82400002100F083F855F877
:101610002400002100F06CF855F82400002100F0AF
:1016200055F855F824000021FFF7B0FF55F82400C5
:101630000021FFF7A1FF55F82400042100F04EF827
:1016400055F82400082100F05BF855F82400FFF756
:1016500081FFA5F10C003A46005D3146FFF710F915
:1016600055F82400BDE8F04740F2053100F002B81B
:101670008E22000800EB9110026801F01F03012187
:1016800099400A4302607047C1F3044301229A4023
:1016900000EB9150D2430260704730B5C1F389121C
:1016A000825801F01F04012505FA04F31A4000EBEB
:1016B00091500068C1F3044105FA01F31840002875
:1016C00002D00AB1012030BD002030BDC26822F432
:1016D000C062C260C2680A43C2607047C26822F03A
:1016E0000402C260C26801F004010A43C26070478C
:1016F000026922F44052026102690A4302617047A2
:10170000C26822F00802C260C26801F008010A4300
:10171000C2607047C26822F48052C260C2680A4345
:10172000C26070470169D0E901329A60D0E90123B3
:101730005A604A68824201D182684A60002202618E
:101740000868401E08600868704700F108014160A1
:101750004FF0FF328260C16001610021016070477B
:1017600000210161704730B50C68621C02D000F1A5
:10177000080202E0026904E01A4653681D68A542A7
:10178000FAD953684B6099608A60516008610168BA
:10179000491C016030BD42684A6093688B60936861
:1017A0005960916008610168491C01607047000040
:1017B000BF2080F31188BFF34F8FBFF36F8F0248B4
:1017C0000168491C016070479400002004490868C2
:1017D000401E0860002801D180F311887047000086
:1017E0009400002070B500281BD0083804466068BB
:1017F000002816DA2168002913D120F0004060602B
:1018000000F016F9074D6068696808446860204672
:10181000FFF78AFA2869401C2861BDE8704000F093
:1018200065BC70BD780000204FF0E0200021016110
:10183000816102494161072101617047BFD4010004
:1018400070B504460D461646FFF7B2FF94F94430D2
:101850004FF000005B1C01D184F8440094F945105E
:10186000491C01D184F84500FFF7B0FFA06B28B9EF
:101870003246294604F1240000F08CF82046BDE8E9
:101880007040FFF7D7BB000010B502460020002AC9
:1018900007D000F0CDF800211046FFF749F800F01E
:1018A00025FC002807D104494FF080500860BFF3A1
:1018B0004F8FBFF36F8F10BD04ED00E070B504468D
:1018C000FFF776FF214D04B92C68201DFFF72AFF92
:1018D00058B9E06A1E4A00EB800152F8211021B984
:1018E00001218140286988432861A06A18B104F168
:1018F0001800FFF717FF686A401C68622868844276
:1019000008D11348211DA030FFF745FF6868401C2F
:10191000686004E0A868401EA860FFF73DFBFFF781
:1019200055FF2868844202D02046FFF724F96869F1
:1019300000280AD02868844207D106494FF0805019
:101940000860BFF34F8FBFF36F8F70BD240000207E
:101950009C00002004ED00E002490A6A0260C968A8
:10196000416070472400002001490120C861704790
:101970002400002010B50C46054909681831FFF70E
:10198000F2FE2046BDE810400121FEF7D1BF000065
:1019900024000020F0B403460C4658680D490D6839
:1019A000E86185680E6835620D688668183575606F
:1019B0000D6818358560086883621868401C1860D7
:1019C000002A01D04FF0FF342046F0BC1146FEF74C
:1019D000AFBF0000240000207CB511480025CDE9F0
:1019E00000502B4680220FA1104800F00DFA01286C
:1019F00001D100F005FC0A4C2C3C01280ED1BF207F
:101A000080F31188BFF34F8FBFF36F8F4FF0FF301C
:101A1000A06201206061E56000F036F8206B7CBDBB
:101A20005000002049444C4500000000210C0008F3
:101A30000248416B491C41637047000024000020AC
:101A40000F4A506B002802D00120D061704700205F
:101A5000D0611069B0FA80F0C0F11F00094900EBB5
:101A6000800001EB800041684968416000F1080393
:101A7000994201D1496841604068C0681060704770
:101A8000240000209C00002010B50C48016841F49F
:101A90007F010160016841F07F410160FFF7C4FEF2
:101AA000074900200860FEF773FB0648016841F013
:101AB00040410160FEF758FB002010BD20ED00E022
:101AC0009400002034EF00E010B5BF2080F31188AF
:101AD000BFF34F8FBFF36F8F00F0D0F918B10449F7
:101AE0004FF080500860002080F3118810BD000086
:101AF00004ED00E0F8B505460E4617460024002D1B
:101B000016D0601EB0FBF5F0B04211D305FB06F015
:101B100010F1490F0CD84830FFF7C2FA04463CB127
:101B2000224648323B46314628460094FFF78CF85F
:101B30002046F8BD2DE9F04104460F460125002C52
:101B40003BD0E26BC2B3AE1EB6FBF2F1206C814219
:101B500033D3FFF72DFED4E90F20216802FB0011DB
:101B6000A1600021A16321686160E06B2268216CA3
:101B7000401E00FB0121E16084F8446084F8456068
:101B800004F1100047B1FFF7E0FD04F12400FFF776
:101B9000DCFDFFF71BFE11E021690029F9D000F000
:101BA00041FA0028F5D007494FF080500860BFF394
:101BB0004F8FBFF36F8FECE7FFE700252846BDE8A6
:101BC000F081000004ED00E02DE9FF4782B00446FB
:101BD0008A4699460025A8464FF08056374FFFF7B2
:101BE000E7FDA06BE16B884206D3B9F1020F03D089
:101BF0000498F8B115B325E04A4651462046FEF751
:101C000083FF616A51B104F1240000F00BFA58B16E
:101C10003E60BFF34F8FBFF36F8F05E020B13E6092
:101C2000BFF34F8FBFF36F8FFFF7D0FD012006B0DA
:101C3000BDE8F087FFF7CAFD0020F8E76846FFF728
:101C40008BFE0125FFF7C2FDFFF7F2FEFFF7B0FDA7
:101C500094F94400401C01D184F8448094F9450073
:101C6000401C01D184F84580FFF7B0FD04A9684607
:101C700000F09EF830B12046FFF7DCF900F036FAAC
:101C80000020D4E72046FFF7A6F888B104F1100041
:101C90000499FFF76FFE2046FFF7CCF900F026FA13
:101CA00000289CD13E60BFF34F8FBFF36F8F96E744
:101CB0002046FFF7BFF900F019FA90E704ED00E0C5
:101CC0002DE9F74783B004468A46002600274FF0E7
:101CD0008058DFF8D890FFF76BFDA56BC5B1514672
:101CE0002046FEF7FDFE6D1EA563206950B104F18C
:101CF000100000F097F928B1C9F80080BFF34F8FAA
:101D0000BFF36F8FFFF762FD012006B0BDE8F087DB
:101D1000059808B126B107E0FFF758FD0020F4E769
:101D200001A8FFF719FE0126FFF750FDFFF780FE1F
:101D3000FFF73EFD94F94400401C01D184F8447043
:101D400094F94500401C01D184F84570FFF73EFD31
:101D500005A901A800F02CF858B12046FFF76AF950
:101D600000F0C4F92046FFF729F80028B3D000207E
:101D7000CBE72046FFF722F890B104F12400059943
:101D8000FFF7F8FD2046FFF755F900F0AFF90028FE
:101D9000A1D1C9F80080BFF34F8FBFF36F8F9AE7CF
:101DA0002046FFF747F900F0A1F994E704ED00E0C1
:101DB0002DE9F04106460D46FFF7FAFC1148C368CD
:101DC00074681A1B29684F1C0AD03768D0F820C0E5
:101DD0000020674506D09C4204D8012428600CE00E
:101DE00000240AE0914206D9881A28603046FFF79D
:101DF000B3FD002401E028600124FFF7E7FC204642
:101E0000BDE8F081240000202DE9FF5F8146DDE977
:101E10000E788A4616469B46B000FFF741F9054604
:101E200028000ED05420FFF73BF904462CB1542172
:101E30002046FEF716FA256304E02846FFF7D2FC99
:101E400000E000248CB10020CDE90240CDE900780B
:101E50005B46324651464846FEF702FF2046FEF7F3
:101E6000ADFD012004B0BDE8F09F4FF0FF30F9E771
:101E70000148C06870470000240000202DE9F041AF
:101E80000025434E706B002805D0B069401CB0613E
:101E90002846BDE8F081F468641CF46044B9B06B76
:101EA000F16BB163F063306A401C3062FFF774F885
:101EB000B06A384F84420FD34FF0000CB06B00680B
:101EC00038B1B06BC068C1684868844212D2B06251
:101ED00002E04FF0FF30B0623068C06A00EB800073
:101EE00057F82000012800D90125F0690028CFD03B
:101EF0000125CDE74A69D1E902309860D1E90203B2
:101F0000586050680B1D984201D1C8685060C1F8F4
:101F100014C01068401E10608A6A9AB1D1E9078027
:101F2000C8F80800D1E90708C8F80400506801F1B2
:101F30001808404501D1086A5060C1F828C01068EF
:101F4000401E1060C86A0122D6F81080824042EA22
:101F50000802326100EB800007EB800042688A6073
:101F60009068C860906843609360C86A00EB800026
:101F700007EB80024A6157F82020521C47F82020C6
:101F8000C86A3168C96A884298D9012596E7000075
:101F9000240000209C00002010B504460020002CE6
:101FA0003BD0A16C491EA164636CE26A9A4234D0B2
:101FB000002932D1201DFFF7B5FB1849012230B9A5
:101FC00094F82C000B6902FA00F083430B61606CFB
:101FD000E062C0F10500A061E06A0B6982401A432B
:101FE0000A610F4A00EB800002EB80004068A060AD
:101FF0008168E1608368211D59608160E06A00EBBF
:10200000800002EB80006061E06A00EB800052F823
:102010002010491C42F82010012010BD240000208F
:102020009C00002070B5C068C068816AD0E90732A2
:102030009A60D0E907235A604B6800F11802934276
:1020400001D1036A4B60002585620B685B1E0B6043
:10205000244B596B012499B1234D6968C1618E6885
:1020600006628E6872608A6085622968491C2960F0
:10207000C06A1968C96A884232D90120DC6170BD22
:102080004169D0E90262B260D0E9022672604E680E
:10209000021D964201D1C6684E6045610D686D1EF5
:1020A0000D60C16A1E6904FA01F535431D610E4DCC
:1020B00001EB81018C3D05EB8101496881608E68EF
:1020C000C6608E6872608A60C16A01EB810105EBAF
:1020D0008102426155F82120521C45F82120C7E7B2
:1020E000002070BD24000020280100202DE9F041CF
:1020F0000024A046FFF75CFB3E4D686B401E686302
:10210000686B002871D1A86800286ED000273A4A71
:1021100001264EE0D068C468A16AD4E9073098600F
:10212000D4E9070358604B6804F11800834201D1D9
:10213000206A4860A7620868401E08606169D4E9A7
:1021400002309860D4E9020358604B68201D834236
:1021500001D1E3684B6067610B685B1E0B60E16A4D
:10216000D5F810C006FA01F343EA0C032B61224BA9
:1021700001EB81018C3B03EB81014968A160D1F83F
:1021800008C0C4F80CC0D1F808C0CCF804008860BE
:10219000E06A00EB800003EB8001616153F82010DE
:1021A000491C43F82010E06A2968C96A884200D3B4
:1021B000EE6110680028ADD10CB1FEF7EDFEAC6900
:1021C0003CB1FFF75BFE00B1EE61641E002CF8D15C
:1021D000AF61E86948B14FF0010808494FF08050FD
:1021E0000860BFF34F8FBFF36F8FFFF7EFFA4046E2
:1021F000BDE8F081240000202801002004ED00E06B
:102200001CB50024FEF72EFC0848006858B10748AA
:102210000421001DCDE900108A01002304A1064815
:10222000FFF7F2FD044620461CBD000064000020BC
:10223000546D722053766300211000080020014085
:10224000002001400020014000200140002001400A
:102250000020014000200140000C0140040000006B
:1022600008000000100000002000000040000000F6
:1022700080000000000100000020000008060806A1
:1022800008060806080608060806030625260206AC
:1022900002060E061107000000380140004400400D
:1022A0000008014000080140000200000004000096
:1022B00004000000080000005461736B20312069A5
:1022C000732072756E6E696E670D0A005461736BD0
:1022D00020322069732072756E6E696E670D0A0078
:1022E00000230008000000209C0000001C050008DE
:1022F0009C2300089C000020F41800002C05000816
:10230000B8220008CC2200080000000000000000F5
:1023100000000000000000000000000000000000BD
:1023200000000000000000000000000000000000AD
:10233000000000000000000000000000000000009D
:10234000000000000000000000000000000000008D
:102350000000000004000000000000000000000079
:10236000000000000000000000000000000000006D
:10237000000000000000000000000000000000005D
:10238000000000000000000000000000000000004D
:0C23900000000000AAAAAAAA0000000099
:0400000508000131BD
:00000001FF
